S01500004672656552544F535F564941322E73726563D4
S113000083C00000A2C00000A0C000009EC0000089
S11300109CC000009AC0000098C0000096C0000078
S113002094C0000092C0000090C000008EC0000088
S11300308CC000008AC0000088C0000086C0000098
S113004084C0000082C0000080C000007EC00000A8
S11300507CC000007AC0000078C0000076C00000B8
S113006074C000000C94270F0C94730F6EC0000032
S11300706CC000006AC0000068C0000066C00000D8
S113008037C5000062C0000060C000005EC0000010
S11300905CC000005AC0000058C0000056C00000F8
S11300A054C0000052C0000050C000004EC0000008
S11300B04CC000004AC0000048C0000046C0000018
S11300C044C0000042C0000040C000003EC0000028
S11300D03CC000003AC0000038C0000036C0000038
S11300E034C00000CF93DF931F921F92CDB7DEB7C9
S11300F09A8389830E941F0D8091EA0B823008F055
S113010085D30E94D90EF6CF11241FBECFEFD1E2C2
S1130110DEBFCDBF00E00CBF12E0A0E0B2E0ECEE29
S1130120FFE100E00BBF02C007900D92AC31B107B4
S1130130D9F72CE0ACE1B2E001C01D92A635B207BC
S1130140E1F70E94A70E0C94F40F0C94E00ECF93E9
S1130150DF931F921F92CDB7DEB79A83898389817B
S11301609A819C012D5F3F4F89819A81FC013283E2
S1130170218389819A812FEF3FEFFC01348323830C
S113018089819A819C012D5F3F4F89819A81FC016D
S11301903683258389819A819C012D5F3F4F898114
S11301A09A81FC013087278389819A81FC0110821E
S11301B00F900F90DF91CF910895CF93DF931F920B
S11301C01F92CDB7DEB79A83898389819A81FC0116
S11301D0118610860F900F90DF91CF910895CF93E1
S11301E0DF9300D000D0CDB7DEB79C838B837E83B2
S11301F06D838B819C81FC01818192819A838983A7
S11302008D819E8129813A81FC01338322838981F6
S11302109A81FC01248135818D819E81FC01358385
S1130220248389819A81FC01848195812D813E8179
S1130230FC013383228389819A812D813E81FC01D3
S1130240358324838D819E812B813C81FC01318700
S113025020878B819C81FC01808121E0280F8B8188
S11302609C81FC01208326960FB6F894DEBF0FBE56
S1130270CDBFDF91CF910895CF93DF93CDB7DEB794
S113028028970FB6F894DEBF0FBECDBF9E838D8333
S113029078876F838F819885FC01808191819C830D
S11302A08B838B819C81019641F48D819E81FC011D
S11302B0878190859A8389831AC08D819E81039654
S11302C09A83898307C089819A81FC018281938101
S11302D09A83898389819A81FC0182819381FC01BB
S11302E0208131818B819C818217930760F78981FA
S11302F09A81FC01228133818F819885FC013383AB
S113030022838F819885FC01828193812F81388596
S1130310FC01358324838F81988529813A81FC01EE
S11303203583248389819A812F813885FC01338325
S113033022838F8198852D813E81FC01318720871E
S11303408D819E81FC01808121E0280F8D819E8119
S1130350FC01208328960FB6F894DEBF0FBECDBFF4
S1130360DF91CF910895CF93DF9300D01F92CDB743
S1130370DEB79C838B838B819C81FC018085918576
S11303809A8389838B819C81FC01828193812B8157
S11303903C81F90124813581FC01358324838B81DF
S11303A09C81FC01848195812B813C81F90122810E
S11303B03381FC013383228389819A81FC01218169
S11303C032818B819C812817390751F48B819C8160
S11303D0FC012481358189819A81FC013283218346
S11303E08B819C81FC011186108689819A81FC0194
S11303F080812FEF280F89819A81FC0120838981D4
S11304009A81FC0180810F900F900F900F90DF91E3
S1130410CF910895CF93DF93CDB7DEB728970FB66A
S1130420F894DEBF0FBECDBF9C838B837E836D8328
S113043058874F838B819C8121E1FC0120838B8130
S11304409C8101979C838B838B819C8122E2FC019C
S113045020838B819C8101979C838B838B819C81DE
S113046023E3FC0120838B819C8101979C838B83F4
S11304708D819E819A83898329818B819C81FC0152
S113048020838B819C8101979C838B8389819A81B2
S1130490892F99279A83898329818B819C81FC01E7
S11304A020838B819C8101979C838B838B819C818E
S11304B0FC0110828B819C8101979C838B838B81AF
S11304C09C81FC0110828B819C8101979C838B838E
S11304D08B819C8120E8FC0120838B819C81019786
S11304E09C838B838B819C81FC0110828B819C81FA
S11304F001979C838B838B819C81FC0110828B816F
S11305009C8101979C838B838B819C81FC0110824D
S11305108B819C8101979C838B838B819C8122E0BE
S1130520FC0120838B819C8101979C838B838B812D
S11305309C8123E0FC0120838B819C8101979C8317
S11305408B838B819C8124E0FC0120838B819C81A3
S113055001979C838B838B819C8125E0FC01208304
S11305608B819C8101979C838B838B819C8126E06A
S1130570FC0120838B819C8101979C838B838B81DD
S11305809C8127E0FC0120838B819C8101979C83C3
S11305908B838B819C8128E0FC0120838B819C814F
S11305A001979C838B838B819C8129E0FC012083B0
S11305B08B819C8101979C838B838B819C8120E11F
S11305C0FC0120838B819C8101979C838B838B818D
S11305D09C8121E1FC0120838B819C8101979C8378
S11305E08B838B819C8122E1FC0120838B819C8104
S11305F001979C838B838B819C8123E1FC01208365
S11306008B819C8101979C838B838B819C8124E1CA
S1130610FC0120838B819C8101979C838B838B813C
S11306209C8125E1FC0120838B819C8101979C8323
S11306308B838B819C8126E1FC0120838B819C81AF
S113064001979C838B838B819C8127E1FC01208310
S11306508B819C8101979C838B838B819C8128E176
S1130660FC0120838B819C8101979C838B838B81EC
S11306709C8129E1FC0120838B819C8101979C83CF
S11306808B838B819C8120E2FC0120838B819C8164
S113069001979C838B838B819C8121E2FC012083C5
S11306A08B819C8101979C838B838B819C8122E22B
S11306B0FC0120838B819C8101979C838B838B819C
S11306C09C8123E2FC0120838B819C8101979C8384
S11306D08B838F8198859A83898329818B819C81DF
S11306E0FC0120838B819C8101979C838B8389816E
S11306F09A81892F99279A83898329818B819C8167
S1130700FC0120838B819C8101979C838B838B814B
S11307109C8126E2FC0120838B819C8101979C8330
S11307208B838B819C8127E2FC0120838B819C81BC
S113073001979C838B838B819C8128E2FC0120831D
S11307408B819C8101979C838B838B819C8129E283
S1130750FC0120838B819C8101979C838B838B81FB
S11307609C8120E3FC0120838B819C8101979C83E5
S11307708B838B819C8121E3FC0120838B819C8171
S113078001979C838B838B819C8128960FB6F89468
S1130790DEBF0FBECDBFDF91CF910895CF93DF931E
S11307A0CDB7DEB70DD1A091E80BB091E90BCD9197
S11307B0CDBFDD91DEBFFF91EF91DF91CF91BF916E
S11307C0AF919F918F917F916F915F914F913F91E5
S11307D02F911F910F91FF90EF90DF90CF90BF90DA
S11307E0AF909F908F907F906F905F904F903F90CD
S11307F02F901F900F900CBE0F900BBE0F900FBE4A
S11308000F90089581E0DF91CF9108950F920FB674
S1130810F8940F920BB60F920CB60F921F921124FC
S11308202F923F924F925F926F927F928F929F92FC
S1130830AF92BF92CF92DF92EF92FF920F931F93EA
S11308402F933F934F935F936F937F938F939F93D4
S1130850AF93BF93CF93DF93EF93FF93A091E80BF4
S1130860B091E90B0DB60D920EB60D9228D7A0915A
S1130870E80BB091E90BCD91CDBFDD91DEBFFF91C7
S1130880EF91DF91CF91BF91AF919F918F917F9124
S11308906F915F914F913F912F911F910F91FF9015
S11308A0EF90DF90CF90BF90AF909F908F907F900C
S11308B06F905F904F903F902F901F900F900CBEC1
S11308C00F900BBE0F900FBE0F9008950F920FB6AE
S11308D0F8940F920BB60F920CB60F921F9211243C
S11308E02F923F924F925F926F927F928F929F923C
S11308F0AF92BF92CF92DF92EF92FF920F931F932A
S11309002F933F934F935F936F937F938F939F9313
S1130910AF93BF93CF93DF93EF93FF93A091E80B33
S1130920B091E90B0DB60D920EB60D9280911E0298
S113093090911F02019790931F0280931E02809151
S11309401E0290911F02892B41F480911C02909108
S11309501D0290931F0280931E02C4D5882309F0C0
S1130960AED6A091E80BB091E90BCD91CDBFDD914E
S1130970DEBFFF91EF91DF91CF91BF91AF919F9136
S11309808F917F916F915F914F913F912F911F9123
S11309900F91FF90EF90DF90CF90BF90AF909F901A
S11309A08F907F906F905F904F903F902F901F900B
S11309B00F900CBE0F900BBE0F900FBE0F900895BA
S11309C0CF93DF93CDB7DEB72A970FB6F894DEBF87
S11309D00FBECDBF80E197E2A0E0B0E089839A83A7
S11309E0AB83BC8389819A81AB81BC81689415F8FF
S11309F0B695A795979587951694D1F789839A8389
S1130A00AB83BC8389819A81AB81BC81880F991F98
S1130A10AA1FBB1F880F991FAA1FBB1F880F991FEE
S1130A20AA1FBB1F880F991FAA1FBB1F880F991FDE
S1130A30AA1FBB1F880F991FAA1FBB1F9C01AD01D2
S1130A4080E896E9A8E9B0E0BC01CD010E94C90F95
S1130A50DA01C90190931D0280931C0280911C024B
S1130A6090911D0290931F0280931E0289819A81A6
S1130A70AB81BC810197A109B10989839A83AB83B6
S1130A80BC8389818D8389819A81AB81BC81892FC3
S1130A909A2FAB2FBB2789839A83AB83BC8389812D
S1130AA08E8389E990E02E81FC01208388E990E01F
S1130AB02D81FC0120838BE08D8381E990E02D81E1
S1130AC0FC01208381E790E0FC0180818D838D818E
S1130AD082608D8381E790E02D81FC0120832A963A
S1130AE00FB6F894DEBF0FBECDBFDF91CF9108954E
S1130AF0EDDE1895CF93DF9300D01F92CDB7DEB70C
S1130B009C838B831A82198256D48091E60B909130
S1130B10E70B892B31F481E292E09093E70B809309
S1130B20E60B2091E40B3091E50B8B819C81820FC5
S1130B30931F833C994038F52091E40B3091E50BE9
S1130B408B819C81280F391F8091E40B9091E50BD8
S1130B5082179307C0F42091E60B3091E70B809144
S1130B60E40B9091E50B820F931F9A838983209164
S1130B70E40B3091E50B8B819C81820F931F909342
S1130B80E50B8093E40B23D489819A810F900F9015
S1130B900F900F90DF91CF910895CF93DF931F9221
S1130BA01F92CDB7DEB79A8389830F900F90DF91A0
S1130BB0CF910895CF93DF93CDB7DEB72B970FB6C0
S1130BC0F894DEBF0FBECDBF9E838D8378876F837D
S1130BD05A8749872B878D819E819B838A831C82B8
S1130BE08A819B81FC01228D8A819B81FC01838DFA
S1130BF0281718F08B85823081F52F8138858A81FA
S1130C009B814B85B90193D08A819B81FC01868DA0
S1130C108F3FB1F48A819B81FC0181898823D1F0C3
S1130C208A819B814196D9D58823A1F089859A85AB
S1130C30892B81F089859A8521E0FC0120830AC0F3
S1130C408A819B81FC01868D8F5F282F8A819B81FD
S1130C50FC01268F81E0898301C0198289812B964A
S1130C600FB6F894DEBF0FBECDBFDF91CF910895CC
S1130C70CF93DF93CDB7DEB72A970FB6F894DEBFD4
S1130C800FBECDBF9E838D8378876F835A87498734
S1130C908D819E819B838A831C828A819B81FC0136
S1130CA0828D8823C9F12F8138858A819B81B9017E
S1130CB0FDD08A819B81FC01828D2FEF280F8A81D0
S1130CC09B81FC01228F8A819B81FC01858D8F3F52
S1130CD0B1F48A819B81FC0180858823D1F08A81CB
S1130CE09B8108967AD58823A1F089859A85892BDA
S1130CF081F089859A8521E0FC0120830AC08A81DC
S1130D009B81FC01858D8F5F282F8A819B81FC014B
S1130D10258F81E0898301C0198289812A960FB6C3
S1130D20F894DEBF0FBECDBFDF91CF910895CF936E
S1130D30DF9300D000D0CDB7DEB79B838A837D8359
S1130D406C834E8319828A819B81FC01848D882364
S1130D5009F498C08E818823D9F58A819B81FC018E
S1130D60848D482F50E08A819B81FC018481958188
S1130D702C813D81B9010E94EB0F8A819B81FC018A
S1130D80248135818A819B81FC01848D882F90E0A8
S1130D90280F391F8A819B81FC01358324838A8132
S1130DA09B81FC01248135818A819B81FC018281A4
S1130DB093812817390708F465C08A819B81FC0157
S1130DC0208131818A819B81FC01358324835AC02F
S1130DD08A819B81FC01848D482F50E08A819B810C
S1130DE0FC01868197812C813D81B9010E94EB0F22
S1130DF08A819B81FC01268137818A819B81FC0148
S1130E00848D882F90E0919581959109280F391F41
S1130E108A819B81FC01378326838A819B81FC0123
S1130E20268137818A819B81FC01808191812817E9
S1130E303907A8F48A819B81FC01228133818A814C
S1130E409B81FC01848D882F90E091958195910977
S1130E50280F391F8A819B81FC01378326838E8169
S1130E60823081F48A819B81FC01828D882351F038
S1130E708A819B81FC01828D2FEF280F8A819B81BF
S1130E80FC01228F8A819B81FC01828D21E0280F45
S1130E908A819B81FC01228F898126960FB6F89462
S1130EA0DEBF0FBECDBFDF91CF910895CF93DF9307
S1130EB000D01F92CDB7DEB79A8389837C836B837E
S1130EC089819A81FC01848D8823C9F189819A8161
S1130ED0FC012681378189819A81FC01848D882FC8
S1130EE090E0280F391F89819A81FC01378326837A
S1130EF089819A81FC012681378189819A81FC014B
S1130F00828193812817390750F089819A81FC01E5
S1130F102081318189819A81FC01378326838981EB
S1130F209A81FC01848D482F50E089819A81FC01CB
S1130F30268137818B819C81B9010E94EB0F0F9030
S1130F400F900F900F90DF91CF910895AF92BF92C1
S1130F50CF92DF92EF92FF920F931F93CF93DF9381
S1130F60CDB7DEB764970FB6F894DEBF0FBECDBF22
S1130F709F838E83798768875B874A873D872C8721
S1130F800E87F88AEF86DA8AC98ABC8AAB8A2989ED
S1130F903A898A859B85B901D9D59B838A838A81BD
S1130FA09B81892B09F48DC08A819B81FC0127894F
S1130FB0308D8A859B850197820F931F9D838C8337
S1130FC04A855B852B893C89688579858A819B81E3
S1130FD08A014E856FD44C855D852E813F818C813D
S1130FE09D81B90117DA9C018A819B81FC013183BF
S1130FF020838F859889892B39F08F8598892A8158
S11310003B81FC01318320830FB6F8940F928091C9
S1131010400C8F5F8093400C8091E80B9091E90B1A
S1131020892B61F48A819B819093E90B8093E80B6F
S11310308091400C8130A9F4C1D413C08091440C38
S1131040882379F48091E80B9091E90BFC0196894F
S11310508E85891730F08A819B819093E90B809368
S1131060E80B8091480C8F5F8093480C8A819B81A8
S1131070FC0196898091430C891730F48A819B8105
S1131080FC0186898093430C8A819B81AC014E5F6D
S11310905F4F8A819B81FC018689282F30E0C9013A
S11310A0880F991F880F991F880F991F820F931F0C
S11310B08651944FBA0193D881E089830F900FBE73
S11310C002C08FEF89838981813071F48091440C4F
S11310D0882351F08091E80B9091E90BFC019689EB
S11310E08E85981708F492DB898164960FB6F8947C
S11310F0DEBF0FBECDBFDF91CF911F910F91FF9047
S1131100EF90DF90CF90BF90AF900895CF93DF938F
S113111000D01F921F92CDB7DEB79D838C831982B6
S11311208C819D81892BB1F046D12091410C309165
S1131130420C8C819D81820F931F9B838A838091B3
S1131140E80B9091E90B02960ED98A819B81B3D466
S11311503ED189838981882309F458DB0F900F904D
S11311600F900F900F90DF91CF910895CF93DF935D
S113117000D01F92CDB7DEB79C838B830FB6F89453
S11311800F928B819C81892B29F48091E80B90919B
S1131190E90B02C08B819C819A83898389819A811E
S11311A00296E1D889819A81FC0184899589892BE9
S11311B021F089819A810C96D6D889819A810296E8
S11311C0BC0187E39CE00BD80F900FBE8091E80B25
S11311D09091E90B29813A812817390799F4809174
S11311E0440C882311F012DB17C09091370C8091C6
S11311F0400C981729F41092E90B1092E80B0CC0DC
S11312005ED20AC08091440C882331F00FB6F89462
S11312100F92F7D40F900FBE0F900F900F900F9076
S1131220DF91CF910895CF93DF9300D01F921F9247
S1131230CDB7DEB79D838C8319828C819D819B837E
S11312408A838A819B81FC018285938587539C4094
S113125089F48A819B81FC018489958984529C400C
S113126049F08A819B81FC0184899589892B11F439
S113127081E0898389810F900F900F900F900F90D8
S1131280DF91CF910895CF93DF9300D01F92CDB714
S1131290DEB79C838B838B819C819A83898389812C
S11312A09A81892B09F44CC08091E80B9091E90B49
S11312B029813A812817390709F442C00FB6F894F6
S11312C00F9289819A81AFDF8130C1F589819A813A
S11312D0029649D889819A81FC0196898091430CB0
S11312E0891730F489819A81FC0186898093430CA3
S11312F089819A81AC014E5F5F4F89819A81FC019B
S11313008689282F30E0C901880F991F880F991FFB
S1131310880F991F820F931F8651944FBA010E9420
S1131320EF0089819A81FC0126898091E80B9091D4
S1131330E90BFC018689281708F068DA0F900FBEC4
S11313400F900F900F900F90DF91CF910895AF926F
S1131350BF92CF92DF92EF92FF920F93CF93DF93DE
S11313601F92CDB7DEB7A12CB12CC12CD12CE12C0E
S1131370F12C00E020E030E049EB50E062E072E064
S113138082E790E0E3DD89838981813049F4F89430
S113139081E08093440C1092420C1092410CFED9CF
S11313A00F90DF91CF910F91FF90EF90DF90CF904E
S11313B0BF90AF900895CF93DF93CDB7DEB7809100
S11313C0490C8F5F8093490CDF91CF910895CF939F
S11313D0DF9300D0CDB7DEB719820FB6F8940F9221
S11313E08091490C81508093490C8091490C882349
S11313F009F06FC08091400C882309F46AC049C089
S11314008091290C90912A0CFC01868197819B8301
S11314108A838A819B810C960E94B3018A819B8175
S113142002960E94B3018A819B81FC019689809176
S1131430430C891730F48A819B81FC01868980934F
S1131440430C8A819B81AC014E5F5F4F8A819B81F3
S1131450FC018689282F30E0C901880F991F880F65
S1131460991F880F991F820F931F8651944FBA01B9
S11314700E94EF008A819B81FC0126898091E80B00
S11314809091E90BFC018689281718F081E080937C
S1131490460C8091240C882309F0B2CF8091450C2E
S11314A0882381F00BC01ED0882319F081E080933B
S11314B0460C8091450C81508093450C8091450CDD
S11314C0882389F78091460C813019F481E089835F
S11314D09DD90F900FBE89810F900F900F90DF91CF
S11314E0CF910895CF93DF93CDB7DEB729970FB689
S11314F0F894DEBF0FBECDBF19828091490C8823BA
S113150009F0C8C08091410C9091420C01969093CF
S1131510420C8093410C8091410C9091420C9B832E
S11315208A838A819B81892BD1F48091200C9091AC
S1131530210C9D838C838091220C9091230C909399
S1131540210C8093200C8C819D819093230C80939B
S1131550220C8091470C8F5F8093470C52D380916B
S11315600002909101022A813B812817390708F46F
S113157077C08091200C9091210CFC0180818823FC
S113158039F48FEF9FEF909301028093000268C0BB
S11315908091200C9091210CFC0185819681FC01A5
S11315A0868197819F838E838E819F81FC018281B6
S11315B09381998788872A813B8188859985281713
S11315C0390738F488859985909301028093000245
S11315D047C08E819F8102960E94B3018E819F81B4
S11315E0FC0184899589892B29F08E819F810C9631
S11315F00E94B3018E819F81FC0196898091430CE6
S1131600891730F48E819F81FC0186898093430C75
S11316108E819F81AC014E5F5F4F8E819F81FC0163
S11316208689282F30E0C901880F991F880F991FD8
S1131630880F991F820F931F8651944FBA010E94FD
S1131640EF008E819F81FC0126898091E80B9091A7
S1131650E90BFC018689281710F081E0898389CF82
S11316608091E80B9091E90BFC018689282F30E0EA
S1131670C901880F991F880F991F880F991F820F1E
S1131680931F8651944FFC018081823040F081E0A9
S1131690898305C08091450C8F5F8093450C8091B0
S11316A0460C882311F081E08983898129960FB63D
S11316B0F894DEBF0FBECDBFDF91CF910895CF93D5
S11316C0DF931F921F92CDB7DEB78091490C882318
S11316D021F081E08093460C7BC01092460C8091EF
S11316E0E80B9091E90BFC01208131818091E80B9A
S11316F09091E90BFC018789908D8217930768F01C
S11317008091E80B9091E90B9C01275E3F4F8091FB
S1131710E80B9091E90BB90180D305C08091430C8B
S113172081508093430C8091430C282F30E0C901F1
S1131730880F991F880F991F880F991F820F931F75
S11317408651944FFC018081882341F38091430C9E
S1131750282F30E0C901880F991F880F991F880F1F
S1131760991F820F931F8651944F9A83898389818D
S11317709A81FC0181819281FC01228133818981DA
S11317809A81FC013283218389819A81FC01218120
S1131790328189819A8103962817390769F48981EE
S11317A09A81FC0181819281FC01228133818981AA
S11317B09A81FC013283218389819A81FC01818190
S11317C09281FC01868197819093E90B8093E80BC9
S11317D00F900F90DF91CF910895CF93DF9300D0B6
S11317E01F921F92CDB7DEB79D838C838C819D8120
S11317F0FC0185819681FC01868197819B838A8384
S11318008A819B810C960E94B3018091490C8823A4
S113181069F58A819B8102960E94B3018A819B812A
S1131820FC0196898091430C891730F48A819B814D
S1131830FC0186898093430C8A819B81AC014E5FB5
S11318405F4F8A819B81FC018689282F30E0C90182
S1131850880F991F880F991F880F991F820F931F54
S11318608651944FBA010E94EF0008C08A819B817F
S11318700C96BC0184E29CE00E94EF008A819B816B
S1131880FC0126898091E80B9091E90BFC01868983
S1131890821730F481E0898381E08093460C01C093
S11318A0198289810F900F900F900F900F90DF9104
S11318B0CF9108950F931F93CF93DF93CDB7DEB7E6
S11318C02A970FB6F894DEBF0FBECDBF9B838A83E1
S11318D07D836C834E8338872F831A870987198207
S11318E022C08981882F90E02981222F30E04C8109
S11318F05D81240F351FF90140812A813B81820FCC
S1131900931F4996FC0140838981882F90E02C81A4
S11319103D81820F931FFC018081882309F406C056
S113192089818F5F898389818830D8F28A819B81FC
S1131930FC0110A28E81843010F083E08E838A81B2
S11319409B812E81FC01268B8A819B8102960E94B9
S1131950DD008A819B810C960E94DD008A819B8137
S11319602A813B81FC01318720878E81882F90E07A
S113197024E030E0281B390B8A819B81FC013587E8
S113198024878A819B812A813B81FC01338B228BB2
S11319908A819B81FC0111A212A213A214A28A8142
S11319A09B81FC0115A22A960FB6F894DEBF0FBEE8
S11319B0CDBFDF91CF911F910F910895CF93DF9306
S11319C01F92CDB7DEB7198213C08981282F30E06A
S11319D0C901880F991F880F991F880F991F820FBB
S11319E0931F8651944F0E94A70089818F5F89833A
S11319F08981843050F38EE09CE00E94A70087E147
S1131A009CE00E94A70084E29CE00E94A7008DE273
S1131A109CE00E94A70087E39CE00E94A7008EE060
S1131A209CE09093210C8093200C87E19CE09093A0
S1131A30230C8093220C0F90DF91CF910895CF93C4
S1131A40DF9300D0CDB7DEB72CC0B5DC90912D0C60
S1131A5081E0992309F080E08983B9DC89818823B6
S1131A6001F50FB6F8940F928091320C9091330CDB
S1131A70FC01868197819B838A838A819B8102965C
S1131A800E94B3018091400C81508093400C80915E
S1131A90360C81508093360C0F900FBE8A819B8147
S1131AA098D08091360C882381F60F900F900F9078
S1131AB0DF91CF910895CF93DF931F921F92CDB7FB
S1131AC0DEB79A8389838091E80B9091E90B298191
S1131AD03A81FC01338322838091410C9091420C22
S1131AE029813A812817390778F48091E80B90917D
S1131AF0E90B9C012E5F3F4F8091220C9091230CA7
S1131B00B9010E943C011DC08091E80B9091E90B42
S1131B109C012E5F3F4F8091200C9091210CB901C4
S1131B200E943C01809100029091010229813A8136
S1131B302817390730F489819A81909301028093A0
S1131B4000020F900F90DF91CF910895CF93DF9310
S1131B50CDB7DEB728970FB6F894DEBF0FBECDBF62
S1131B609E838D8378876F838F819885892B29F451
S1131B708D819E810E947A0502C08F8198859C8305
S1131B808B838B819C81892BB9F086E290E00E9443
S1131B907A059A83898389819A81892B41F0898185
S1131BA09A812B813C81FC01308F278B07C08B816C
S1131BB09C810E94CD0502C01A82198289819A8172
S1131BC028960FB6F894DEBF0FBECDBFDF91CF913C
S1131BD00895CF93DF931F921F92CDB7DEB79A83F8
S1131BE0898389819A81FC018789908D0E94CD0522
S1131BF089819A810E94CD050F900F90DF91CF913A
S1131C000895CF93DF931F921F92CDB7DEB78091D3
S1131C10200C9091210CFC018081882339F48FEFF2
S1131C209FEF909301028093000215C08091200CD5
S1131C309091210CFC0185819681FC01868197811C
S1131C409A83898389819A81FC018281938190930B
S1131C500102809300020F900F90DF91CF910895BD
S1131C60CF93DF931F921F92CDB7DEB79A838983F8
S1131C7085E290E02DEFFC0120838091500C90913F
S1131C80510C74DAF5CFCF93DF931F921F92CDB727
S1131C90DEB79A83898385E290E02FEFFC012083ED
S1131CA08091520C9091530CEEDAF5CFAF92BF9223
S1131CB0CF92DF92EF92FF920F93CF93DF931F9215
S1131CC01F92CDB7DEB79A83898388EC90E01EDA41
S1131CD0A12CB12CC12CD12CE12CF12C05E020E05D
S1131CE030E049EB50E067E072E080E39EE02ED9FB
S1131CF084E690E00BDA8091500C9091510CC3DA99
S1131D0088EC90E003DAA12CB12CC12CD12CE12C6D
S1131D10F12C05E020E030E049EB50E06EE072E0A9
S1131D2083E49EE013D984E690E0F0D98091520CCC
S1131D309091530CA8DA0F900F90DF91CF910F91EF
S1131D40FF90EF90DF90CF90BF90AF900895AF9247
S1131D50BF92CF92DF92EF92FF920F93CF93DF93D4
S1131D60CDB7DEB784E290E02FEFFC01208385E25B
S1131D7090E02DEFFC012083A12CB12CC12CD12C9F
S1131D80E12CF12C05E020E030E049EB50E065E186
S1131D9072E086E59EE0DAD8DADA80E090E0DF915E
S1131DA0CF910F91FF90EF90DF90CF90BF90AF90C5
S1131DB00895CF93DF93CDB7DEB7DF91CF91089528
S1131DC01F920F9200905F000F92112400905B000D
S1131DD00F922F933F938F939F93EF93FF93CF9300
S1131DE0DF93CDB7DEB782E290E022E230E0F90182
S1131DF020812D7FFC012083DF91CF91FF91EF9112
S1131E009F918F913F912F910F9000925B000F90C3
S1131E1000925F000F901F901895CF93DF9300D02E
S1131E201F92CDB7DEB79A8389837C836B8382E26A
S1131E3090E022E230E0F90120812068FC01208357
S1131E400F900F900F900F90DF91CF9108951F92F4
S1131E500F9200905F000F92112400905B000F928C
S1131E602F933F934F935F936F937F938F939F939E
S1131E70AF93BF93EF93FF93CF93DF931F921F9280
S1131E80CDB7DEB71A8286EC90E0FC0180818983AD
S1131E9080914A0C90914B0CAE014E5F5F4F20E055
S1131EA0BE016F5F7F4F0E94DA058A81882311F09B
S1131EB00E9406040F900F90DF91CF91FF91EF9154
S1131EC0BF91AF919F918F917F916F915F914F914E
S1131ED03F912F910F9000925B000F9000925F0052
S1131EE00F901F9018951F920F9200905F000F9211
S1131EF0112400905B000F922F933F934F935F93B5
S1131F006F937F938F939F93AF93BF93EF93FF93BD
S1131F10CF93DF9300D0CDB7DEB780914C0C909176
S1131F204D0CAE014D5F5F4F9E012E5F3F4FB901D7
S1131F300E943806813031F486EC90E02A81FC015D
S1131F4020830DC081EC90E0FC018081898389812C
S1131F508F7D898381EC90E02981FC0120830F909F
S1131F600F900F90DF91CF91FF91EF91BF91AF91BF
S1131F709F918F917F916F915F914F913F912F919D
S1131F800F9000925B000F9000925F000F901F90E3
S1131F901895A1E21A2EAA1BBB1BFD010DC0AA1F96
S1131FA0BB1FEE1FFF1FA217B307E407F50720F0BE
S1131FB0A21BB30BE40BF50B661F771F881F991F39
S1131FC01A9469F760957095809590959B01AC0182
S1131FD0BD01CF010895FB01DC0102C001900D9207
S10F1FE041505040D8F70895F894FFCF0A
S1131FECFFFF49444C45005461736B20310054612C
S10F1FFC736B2032005461736B203300BF
S9030000FC
