:1000000083C00000A2C00000A0C000009EC000008D
:100010009CC000009AC0000098C0000096C000007C
:1000200094C0000092C0000090C000008EC000008C
:100030008CC000008AC0000088C0000086C000009C
:1000400084C0000082C0000080C000007EC00000AC
:100050007CC000007AC0000078C0000076C00000BC
:1000600074C000000C94FA110C9446126EC000008B
:100070006CC000006AC0000068C0000066C00000DC
:1000800039C5000062C0000060C000005EC0000012
:100090005CC000005AC0000058C0000056C00000FC
:1000A00054C0000052C0000050C000004EC000000C
:1000B0004CC000004AC0000048C0000046C000001C
:1000C00044C0000042C0000040C000003EC000002C
:1000D0003CC000003AC0000038C0000036C000003C
:1000E00034C00000CF93DF931F921F92CDB7DEB7CD
:1000F0009A8389830E94E60F8091E40B823008F096
:1001000085D30E94AC11F6CF11241FBECFEFD1E2F0
:10011000DEBFCDBF00E00CBF12E0A0E0B2E0E2E93C
:10012000F5E200E00BBF02C007900D92A631B107C7
:10013000D9F72CE0A6E1B2E001C01D92A934B207C4
:10014000E1F70E9455110C94C7120C94B311CF9390
:10015000DF931F921F92CDB7DEB79A83898389817F
:100160009A819C012D5F3F4F89819A81FC013283E6
:10017000218389819A812FEF3FEFFC013483238310
:1001800089819A819C012D5F3F4F89819A81FC0171
:100190003683258389819A819C012D5F3F4F898118
:1001A0009A81FC013087278389819A81FC01108222
:1001B0000F900F90DF91CF910895CF93DF931F920F
:1001C0001F92CDB7DEB79A83898389819A81FC011A
:1001D000118610860F900F90DF91CF910895CF93E5
:1001E000DF9300D000D0CDB7DEB79C838B837E83B6
:1001F0006D838B819C81FC01818192819A838983AB
:100200008D819E8129813A81FC01338322838981FA
:100210009A81FC01248135818D819E81FC01358389
:10022000248389819A81FC01848195812D813E817D
:10023000FC013383228389819A812D813E81FC01D7
:10024000358324838D819E812B813C81FC01318704
:1002500020878B819C81FC01808121E0280F8B818C
:100260009C81FC01208326960FB6F894DEBF0FBE5A
:10027000CDBFDF91CF910895CF93DF93CDB7DEB798
:1002800028970FB6F894DEBF0FBECDBF9E838D8337
:1002900078876F838F819885FC01808191819C8311
:1002A0008B838B819C81019641F48D819E81FC0121
:1002B000878190859A8389831AC08D819E81039658
:1002C0009A83898307C089819A81FC018281938105
:1002D0009A83898389819A81FC0182819381FC01BF
:1002E000208131818B819C818217930760F78981FE
:1002F0009A81FC01228133818F819885FC013383AF
:1003000022838F819885FC01828193812F8138859A
:10031000FC01358324838F81988529813A81FC01F2
:100320003583248389819A812F813885FC01338329
:1003300022838F8198852D813E81FC013187208722
:100340008D819E81FC01808121E0280F8D819E811D
:10035000FC01208328960FB6F894DEBF0FBECDBFF8
:10036000DF91CF910895CF93DF9300D01F92CDB747
:10037000DEB79C838B838B819C81FC01808591857A
:100380009A8389838B819C81FC01828193812B815B
:100390003C81F90124813581FC01358324838B81E3
:1003A0009C81FC01848195812B813C81F901228112
:1003B0003381FC013383228389819A81FC0121816D
:1003C00032818B819C812817390751F48B819C8164
:1003D000FC012481358189819A81FC01328321834A
:1003E0008B819C81FC011186108689819A81FC0198
:1003F00080812FEF280F89819A81FC0120838981D8
:100400009A81FC0180810F900F900F900F90DF91E7
:10041000CF910895CF93DF93CDB7DEB728970FB66E
:10042000F894DEBF0FBECDBF9C838B837E836D832C
:1004300058874F838B819C8121E1FC0120838B8134
:100440009C8101979C838B838B819C8122E2FC01A0
:1004500020838B819C8101979C838B838B819C81E2
:1004600023E3FC0120838B819C8101979C838B83F8
:100470008D819E819A83898329818B819C81FC0156
:1004800020838B819C8101979C838B8389819A81B6
:10049000892F99279A83898329818B819C81FC01EB
:1004A00020838B819C8101979C838B838B819C8192
:1004B000FC0110828B819C8101979C838B838B81B3
:1004C0009C81FC0110828B819C8101979C838B8392
:1004D0008B819C8120E8FC0120838B819C8101978A
:1004E0009C838B838B819C81FC0110828B819C81FE
:1004F00001979C838B838B819C81FC0110828B8173
:100500009C8101979C838B838B819C81FC01108251
:100510008B819C8101979C838B838B819C8122E0C2
:10052000FC0120838B819C8101979C838B838B8131
:100530009C8123E0FC0120838B819C8101979C831B
:100540008B838B819C8124E0FC0120838B819C81A7
:1005500001979C838B838B819C8125E0FC01208308
:100560008B819C8101979C838B838B819C8126E06E
:10057000FC0120838B819C8101979C838B838B81E1
:100580009C8127E0FC0120838B819C8101979C83C7
:100590008B838B819C8128E0FC0120838B819C8153
:1005A00001979C838B838B819C8129E0FC012083B4
:1005B0008B819C8101979C838B838B819C8120E123
:1005C000FC0120838B819C8101979C838B838B8191
:1005D0009C8121E1FC0120838B819C8101979C837C
:1005E0008B838B819C8122E1FC0120838B819C8108
:1005F00001979C838B838B819C8123E1FC01208369
:100600008B819C8101979C838B838B819C8124E1CE
:10061000FC0120838B819C8101979C838B838B8140
:100620009C8125E1FC0120838B819C8101979C8327
:100630008B838B819C8126E1FC0120838B819C81B3
:1006400001979C838B838B819C8127E1FC01208314
:100650008B819C8101979C838B838B819C8128E17A
:10066000FC0120838B819C8101979C838B838B81F0
:100670009C8129E1FC0120838B819C8101979C83D3
:100680008B838B819C8120E2FC0120838B819C8168
:1006900001979C838B838B819C8121E2FC012083C9
:1006A0008B819C8101979C838B838B819C8122E22F
:1006B000FC0120838B819C8101979C838B838B81A0
:1006C0009C8123E2FC0120838B819C8101979C8388
:1006D0008B838F8198859A83898329818B819C81E3
:1006E000FC0120838B819C8101979C838B83898172
:1006F0009A81892F99279A83898329818B819C816B
:10070000FC0120838B819C8101979C838B838B814F
:100710009C8126E2FC0120838B819C8101979C8334
:100720008B838B819C8127E2FC0120838B819C81C0
:1007300001979C838B838B819C8128E2FC01208321
:100740008B819C8101979C838B838B819C8129E287
:10075000FC0120838B819C8101979C838B838B81FF
:100760009C8120E3FC0120838B819C8101979C83E9
:100770008B838B819C8121E3FC0120838B819C8175
:1007800001979C838B838B819C8128960FB6F8946C
:10079000DEBF0FBECDBFDF91CF910895CF93DF9322
:1007A000CDB7DEB70FD1A091E20BB091E30BCD91A5
:1007B000CDBFDD91DEBFFF91EF91DF91CF91BF9172
:1007C000AF919F918F917F916F915F914F913F91E9
:1007D0002F911F910F91FF90EF90DF90CF90BF90DE
:1007E000AF909F908F907F906F905F904F903F90D1
:1007F0002F901F900F900CBE0F900BBE0F900FBE4E
:100800000F90089581E0DF91CF9108950F920FB678
:10081000F8940F920BB60F920CB60F921F92112400
:100820002F923F924F925F926F927F928F929F9200
:10083000AF92BF92CF92DF92EF92FF920F931F93EE
:100840002F933F934F935F936F937F938F939F93D8
:10085000AF93BF93CF93DF93EF93FF93A091E20BFE
:10086000B091E30B0DB60D920EB60D920E946A0D7B
:10087000A091E20BB091E30BCD91CDBFDD91DEBF36
:10088000FF91EF91DF91CF91BF91AF919F918F91A8
:100890007F916F915F914F913F912F911F910F9198
:1008A000FF90EF90DF90CF90BF90AF909F908F9090
:1008B0007F906F905F904F903F902F901F900F9080
:1008C0000CBE0F900BBE0F900FBE0F9008950F92AD
:1008D0000FB6F8940F920BB60F920CB60F921F92B0
:1008E00011242F923F924F925F926F927F928F923C
:1008F0009F92AF92BF92CF92DF92EF92FF920F93AF
:100900001F932F933F934F935F936F937F938F9397
:100910009F93AF93BF93CF93DF93EF93FF93A091F8
:10092000E20BB091E30B0DB60D920EB60D928091D5
:10093000180290911902019790931902809318025E
:100940008091180290911902892B41F4809116022E
:10095000909117029093190280931802CED78823A2
:1009600011F00E946A0DA091E20BB091E30BCD91C2
:10097000CDBFDD91DEBFFF91EF91DF91CF91BF91B0
:10098000AF919F918F917F916F915F914F913F9127
:100990002F911F910F91FF90EF90DF90CF90BF901C
:1009A000AF909F908F907F906F905F904F903F900F
:1009B0002F901F900F900CBE0F900BBE0F900FBE8C
:1009C0000F900895CF93DF93CDB7DEB72A970FB678
:1009D000F894DEBF0FBECDBF80E197E2A0E0B0E0AB
:1009E00089839A83AB83BC8389819A81AB81BC81E3
:1009F000689415F8B695A795979587951694D1F7AD
:100A000089839A83AB83BC8389819A81AB81BC81C2
:100A1000880F991FAA1FBB1F880F991FAA1FBB1FF2
:100A2000880F991FAA1FBB1F880F991FAA1FBB1FE2
:100A3000880F991FAA1FBB1F880F991FAA1FBB1FD2
:100A40009C01AD0180E896E9A8E9B0E0BC01CD01C8
:100A50000E949C12DA01C90190931702809316023A
:100A600080911602909117029093190280931802B8
:100A700089819A81AB81BC810197A109B1098983E0
:100A80009A83AB83BC8389818D8389819A81AB8171
:100A9000BC81892F9A2FAB2FBB2789839A83AB8385
:100AA000BC8389818E8389E990E02E81FC012083BB
:100AB00088E990E02D81FC0120838BE08D8381E922
:100AC00090E02D81FC01208381E790E0FC01808192
:100AD0008D838D8182608D8381E790E02D81FC0183
:100AE00020832A960FB6F894DEBF0FBECDBFDF91EC
:100AF000CF910895ECDE1895CF93DF9300D01F922D
:100B0000CDB7DEB79C838B831A8219825ED6809123
:100B1000E00B9091E10B892B31F48BE192E0909303
:100B2000E10B8093E00B2091DE0B3091DF0B8B818A
:100B30009C81820F931F833C994038F52091DE0BF6
:100B40003091DF0B8B819C81280F391F8091DE0B48
:100B50009091DF0B82179307C0F42091E00B309146
:100B6000E10B8091DE0B9091DF0B820F931F9A8334
:100B700089832091DE0B3091DF0B8B819C81820F6A
:100B8000931F9093DF0B8093DE0B2BD689819A8184
:100B90000F900F900F900F90DF91CF910895CF930A
:100BA000DF931F921F92CDB7DEB79A8389830F9090
:100BB0000F90DF91CF910895CF93DF9300D01F92D4
:100BC0001F92CDB7DEB79C838B836D838B819C8115
:100BD0009A8389830FB6F8940F9289819A81FC01D8
:100BE0008081918129813A81F901238D422F50E042
:100BF00029813A81F901248D222F30E0429FB001F2
:100C0000439F700D529F700D11249B01280F391FB7
:100C100089819A81FC013383228389819A81FC0135
:100C2000128E89819A81FC012081318189819A818A
:100C3000FC013583248389819A81FC018081918123
:100C400029813A81F901238D222F30E0A9014150F9
:100C5000510929813A81F901248D222F30E0429FE8
:100C6000B001439F700D529F700D11249B01280FFE
:100C7000391F89819A81FC013783268389819A8172
:100C80002FEFFC01258F89819A812FEFFC01268FA0
:100C90008D81882371F489819A81FC018085882364
:100CA00081F089819A810896D6D7813051F4AEDDE2
:100CB00008C089819A8108964ADA89819A81419689
:100CC00046DA0F900FBE81E00F900F900F900F90BB
:100CD0000F90DF91CF910895CF93DF93CDB7DEB71B
:100CE0002B970FB6F894DEBF0FBECDBF89876A87FA
:100CF0004B871C821B828A85882319F41A821982E9
:100D000011C08985282F30E08A85882F90E0289FA0
:100D1000A001299F500D389F500D1124CA01019642
:100D20009A83898389819A814F96E6DE9E838D839B
:100D30008D819E81892B59F18D819E8198878F832A
:100D40008A85882341F48F8198852F813885FC011D
:100D5000318320830AC08D819E819C01215E3F4F9B
:100D60008F819885FC01318320838F819885298527
:100D7000FC01238F8F8198852A85FC01248F8F8128
:100D8000988561E019DF8F8198859C838B838B81A7
:100D90009C812B960FB6F894DEBF0FBECDBFDF91BE
:100DA000CF910895CF93DF93CDB7DEB72E970FB6CF
:100DB000F894DEBF0FBECDBF998788877B876A878F
:100DC0005D874C872E871982888599859B838A83C6
:100DD0000FB6F8940F928A819B81FC01228D8A8143
:100DE0009B81FC01838D281718F08E858230F1F4E9
:100DF0002A853B858A819B814E85B901F0D18C8300
:100E00008A819B81FC018189882341F08A819B81B1
:100E1000419621D7813031F4F9DC04C08C818823DC
:100E200009F0F4DC0F900FBE81E055C08C859D85E4
:100E3000892B21F40F900FBE80E04DC0898188235B
:100E400029F4CE01059674D781E089830F900FBEF7
:100E5000BCD40FB6F8940F928A819B81FC01858DDA
:100E60008F3F21F48A819B81FC01158E8A819B81B1
:100E7000FC01868D8F3F21F48A819B81FC01168EB7
:100E80000F900FBE9E01245F3F4FCE010596B90122
:100E90006BD78823C9F48A819B812ED3882379F06C
:100EA0002C853D858A819B810896B901A1D68A81CE
:100EB0009B81A4D296D4882369F4A8DC0BC08A81D4
:100EC0009B819CD28ED484CF8A819B8197D289D4F6
:100ED00080E001C07DCF2E960FB6F894DEBF0FBE26
:100EE000CDBFDF91CF910895CF93DF93CDB7DEB71C
:100EF0002B970FB6F894DEBF0FBECDBF9E838D83B8
:100F000078876F835A8749872B878D819E819B8342
:100F10008A831C828A819B81FC01228D8A819B812C
:100F2000FC01838D281718F08B85823081F52F8185
:100F300038858A819B814B85B90151D18A819B81FA
:100F4000FC01868D8F3FB1F48A819B81FC018189F0
:100F50008823D1F08A819B8141967DD68823A1F098
:100F600089859A85892B81F089859A8521E0FC0104
:100F700020830AC08A819B81FC01868D8F5F282F88
:100F80008A819B81FC01268F81E0898301C01982BF
:100F900089812B960FB6F894DEBF0FBECDBFDF91CF
:100FA000CF910895CF93DF93CDB7DEB72F970FB6CC
:100FB000F894DEBF0FBECDBF9A8789877C876B8789
:100FC0005E874D872F87198289859A859B838A83BF
:100FD0000FB6F8940F928A819B81FC01828D882341
:100FE00009F440C08A819B81FC01868197819D83A1
:100FF0008C832B853C858A819B81B901AFD18F85FC
:101000008823C1F48A819B81FC01828D2FEF280FF8
:101010008A819B81FC01228F8A819B81FC018085D2
:101020008823E1F08A819B81089615D68130B1F43E
:10103000EDDB14C08A819B812C813D81FC013783CB
:1010400026838A819B81FC018189882339F08A81EA
:101050009B81419600D6882309F0D8DB0F900FBE04
:1010600081E055C08D859E85892B21F40F900FBEA0
:1010700080E04DC08981882329F4CE01069658D698
:1010800081E089830F900FBEA0D30FB6F8940F9222
:101090008A819B81FC01858D8F3F21F48A819B8110
:1010A000FC01158E8A819B81FC01868D8F3F21F486
:1010B0008A819B81FC01168E0F900FBE9E01235FDB
:1010C0003F4FCE010696B9014FD68823C9F48A81D5
:1010D0009B81F5D1882379F02D853E858A819B817E
:1010E0004196B90185D58A819B8188D17AD388239D
:1010F00069F48CDB0BC08A819B8180D172D368CF6D
:101100008A819B817BD16DD380E001C061CF2F9616
:101110000FB6F894DEBF0FBECDBFDF91CF9108951B
:10112000CF93DF93CDB7DEB72A970FB6F894DEBF23
:101130000FBECDBF9E838D8378876F835A87498783
:101140008D819E819B838A831C828A819B81FC0185
:10115000828D8823C9F12F8138858A819B81B901CD
:10116000FDD08A819B81FC01828D2FEF280F8A811F
:101170009B81FC01228F8A819B81FC01858D8F3FA1
:10118000B1F48A819B81FC0180858823D1F08A811A
:101190009B81089660D58823A1F089859A85892B43
:1011A00081F089859A8521E0FC0120830AC08A812B
:1011B0009B81FC01858D8F5F282F8A819B81FC019B
:1011C000258F81E0898301C0198289812A960FB613
:1011D000F894DEBF0FBECDBFDF91CF910895CF93BE
:1011E000DF9300D000D0CDB7DEB79B838A837D83A9
:1011F0006C834E8319828A819B81FC01848D8823B4
:1012000009F498C08E818823D9F58A819B81FC01DD
:10121000848D482F50E08A819B81FC0184819581D7
:101220002C813D81B9010E94BE128A819B81FC0103
:10123000248135818A819B81FC01848D882F90E0F7
:10124000280F391F8A819B81FC01358324838A8181
:101250009B81FC01248135818A819B81FC018281F3
:1012600093812817390708F465C08A819B81FC01A6
:10127000208131818A819B81FC01358324835AC07E
:101280008A819B81FC01848D482F50E08A819B815B
:10129000FC01868197812C813D81B9010E94BE129B
:1012A0008A819B81FC01268137818A819B81FC0197
:1012B000848D882F90E0919581959109280F391F91
:1012C0008A819B81FC01378326838A819B81FC0173
:1012D000268137818A819B81FC0180819181281739
:1012E0003907A8F48A819B81FC01228133818A819C
:1012F0009B81FC01848D882F90E0919581959109C7
:10130000280F391F8A819B81FC01378326838E81B8
:10131000823081F48A819B81FC01828D882351F087
:101320008A819B81FC01828D2FEF280F8A819B810E
:10133000FC01228F8A819B81FC01828D21E0280F94
:101340008A819B81FC01228F898126960FB6F894B1
:10135000DEBF0FBECDBFDF91CF910895CF93DF9356
:1013600000D01F92CDB7DEB79A8389837C836B83CD
:1013700089819A81FC01848D8823C9F189819A81B0
:10138000FC012681378189819A81FC01848D882F17
:1013900090E0280F391F89819A81FC0137832683C9
:1013A00089819A81FC012681378189819A81FC019A
:1013B000828193812817390750F089819A81FC0135
:1013C0002081318189819A81FC013783268389813B
:1013D0009A81FC01848D482F50E089819A81FC011B
:1013E000268137818B819C81B9010E94BE120F90AA
:1013F0000F900F900F90DF91CF910895CF93DF93CF
:101400001F921F92CDB7DEB79A8389830FB6F894E7
:101410000F9219C089819A81FC018189882341F04A
:1014200089819A81419617D4882319F004D501C087
:1014300010C089819A81FC01868D8150282F898175
:101440009A81FC01268F89819A81FC01868D18166C
:101450000CF389819A812FEFFC01268F0F900FBE2C
:101460000FB6F8940F9219C089819A81FC0180858A
:10147000882391F089819A810896EDD3882309F019
:10148000DAD489819A81FC01858D8150282F898148
:101490009A81FC01258F01C006C089819A81FC01D7
:1014A000858D18160CF389819A812FEFFC01258F09
:1014B0000F900FBE0F900F90DF91CF910895CF93B3
:1014C000DF9300D0CDB7DEB79B838A830FB6F89445
:1014D0000F928A819B81FC01828D882319F481E01F
:1014E000898301C019820F900FBE89810F900F90E0
:1014F0000F90DF91CF910895CF93DF9300D0CDB7B8
:10150000DEB79B838A830FB6F8940F928A819B8102
:10151000FC01228D8A819B81FC01838D281719F49F
:1015200081E0898301C019820F900FBE89810F90DD
:101530000F900F90DF91CF910895AF92BF92CF920D
:10154000DF92EF92FF920F931F93CF93DF93CDB76C
:10155000DEB764970FB6F894DEBF0FBECDBF9F8392
:101560008E83798768875B874A873D872C870E87BC
:10157000F88AEF86DA8AC98ABC8AAB8A29893A89CD
:101580008A859B85B901A9D59B838A838A819B81A2
:10159000892B09F48FC08A819B81FC012789308DBA
:1015A0008A859B850197820F931F9D838C834A8533
:1015B0005B852B893C89688579858A819B818A0135
:1015C0004E8543D44C855D852E813F818C819D81E4
:1015D000B9010E940A029C018A819B81FC0131832E
:1015E00020838F859889892B39F08F8598892A8166
:1015F0003B81FC01318320830FB6F8940F928091D8
:10160000310C8F5F8093310C8091E20B9091E30B52
:10161000892B61F48A819B819093E30B8093E20B89
:101620008091310C8130A9F494D413C08091350C91
:10163000882379F48091E20B9091E30BFC01968969
:101640008E85891730F08A819B819093E30B80937C
:10165000E20B8091390C8F5F8093390C8A819B81DA
:10166000FC0196898091340C891730F48A819B8122
:10167000FC0186898093340C8A819B81AC014E5F8A
:101680005F4F8A819B81FC018689282F30E0C90148
:10169000880F991F880F991F880F991F820F931F1A
:1016A0008C51944FBA010E94EF0081E089830F9022
:1016B0000FBE02C08FEF89838981813071F48091E0
:1016C000350C882351F08091E20B9091E30BFC01E3
:1016D00096898E85981708F499D8898164960FB6F3
:1016E000F894DEBF0FBECDBFDF91CF911F910F9158
:1016F000FF90EF90DF90CF90BF90AF900895CF9381
:10170000DF9300D01F921F92CDB7DEB79D838C83ED
:1017100019828C819D81892BB9F057D02091320C90
:101720003091330C8C819D81820F931F9B838A8320
:101730008091E20B9091E30B02960E94B3018A81A3
:101740009B8180D44ED089838981882309F45ED817
:101750000F900F900F900F900F90DF91CF91089501
:10176000AF92BF92CF92DF92EF92FF920F93CF93FF
:10177000DF931F92CDB7DEB7A12CB12CC12CD12C99
:10178000E12CF12C00E020E030E049EB50E062E099
:1017900072E082E790E0D1DE89838981813051F463
:1017A000F89481E08093350C1092330C1092320C37
:1017B0000E94CE030F90DF91CF910F91FF90EF9099
:1017C000DF90CF90BF90AF900895CF93DF93CDB7C8
:1017D000DEB780913A0C8F5F80933A0CDF91CF9106
:1017E0000895CF93DF9300D0CDB7DEB719820FB63F
:1017F000F8940F9280913A0C815080933A0C80912A
:101800003A0C882309F070C08091310C882309F4C8
:101810006BC049C08091230C9091240CFC018681FF
:1018200097819B838A838A819B810C960E94B30156
:101830008A819B8102960E94B3018A819B81FC016F
:1018400096898091340C891730F48A819B81FC0140
:1018500086898093340C8A819B81AC014E5F5F4FF7
:101860008A819B81FC018689282F30E0C901880F7D
:10187000991F880F991F880F991F820F931F8C51F2
:10188000944FBA010E94EF008A819B81FC01268956
:101890008091E20B9091E30BFC018689281718F0E8
:1018A00081E08093370C80911E0C882309F0B2CF21
:1018B0008091360C882381F00BC01FD0882319F04B
:1018C00081E08093370C8091360C81508093360CE8
:1018D0008091360C882389F78091370C813021F470
:1018E00081E089830E9406040F900FBE89810F90CA
:1018F0000F900F90DF91CF910895CF93DF93CDB7E5
:10190000DEB729970FB6F894DEBF0FBECDBF1982A0
:1019100080913A0C882309F0C8C08091320C9091D4
:10192000330C01969093330C8093320C8091320CDF
:101930009091330C9B838A838A819B81892BD1F47C
:1019400080911A0C90911B0C9D838C8380911C0CB0
:1019500090911D0C90931B0C80931A0C8C819D818F
:1019600090931D0C80931C0C8091380C8F5F80939A
:10197000380C0ED480910002909101022A813B81A3
:101980002817390708F477C080911A0C90911B0C26
:10199000FC018081882339F48FEF9FEF909301023F
:1019A0008093000268C080911A0C90911B0CFC017E
:1019B00085819681FC01868197819F838E838E81AC
:1019C0009F81FC0182819381998788872A813B814D
:1019D000888599852817390738F4888599859093E3
:1019E00001028093000247C08E819F8102960E946F
:1019F000B3018E819F81FC0184899589892B29F00F
:101A00008E819F810C960E94B3018E819F81FC0183
:101A100096898091340C891730F48E819F81FC0166
:101A200086898093340C8E819F81AC014E5F5F4F1D
:101A30008E819F81FC018689282F30E0C901880FA3
:101A4000991F880F991F880F991F820F931F8C5120
:101A5000944FBA010E94EF008E819F81FC0126897C
:101A60008091E20B9091E30BFC018689281710F01E
:101A700081E0898389CF8091E20B9091E30BFC0197
:101A80008689282F30E0C901880F991F880F991F78
:101A9000880F991F820F931F8C51944FFC018081F6
:101AA000823040F081E0898305C08091360C8F5FE1
:101AB0008093360C8091370C882311F081E0898364
:101AC000898129960FB6F894DEBF0FBECDBFDF9196
:101AD000CF910895CF93DF931F921F92CDB7DEB7BA
:101AE00080913A0C882321F081E08093370C7BC0F1
:101AF0001092370C8091E20B9091E30BFC01208156
:101B000031818091E20B9091E30BFC018789908DEC
:101B10008217930768F08091E20B9091E30B9C0190
:101B2000275E3F4F8091E20B9091E30BB90148D4BF
:101B300005C08091340C81508093340C8091340C1A
:101B4000282F30E0C901880F991F880F991F880F2F
:101B5000991F820F931F8C51944FFC018081882321
:101B600041F38091340C282F30E0C901880F991F70
:101B7000880F991F880F991F820F931F8C51944FC4
:101B80009A83898389819A81FC0181819281FC01F8
:101B90002281338189819A81FC0132832183898169
:101BA0009A81FC012181328189819A8103962817CB
:101BB000390769F489819A81FC0181819281FC0154
:101BC0002281338189819A81FC0132832183898139
:101BD0009A81FC0181819281FC0186819781909399
:101BE000E30B8093E20B0F900F90DF91CF9108955C
:101BF000CF93DF9300D000D0CDB7DEB79C838B832B
:101C00007E836D838091E20B9091E30B9C01245FB6
:101C10003F4F8B819C81B9010E943C018091E20B76
:101C20009091E30B02960E94B3012091320C309107
:101C3000330C8D819E81820F931F9A8389838981C2
:101C40009A8100D226960FB6F894DEBF0FBECDBFA4
:101C5000DF91CF910895CF93DF9300D01F921F9211
:101C6000CDB7DEB79D838C838C819D81FC018581FE
:101C70009681FC01868197819B838A838A819B81DF
:101C80000C960E94B30180913A0C882369F58A81F1
:101C90009B8102960E94B3018A819B81FC019689F7
:101CA0008091340C891730F48A819B81FC018689EC
:101CB0008093340C8A819B81AC014E5F5F4F8A8197
:101CC0009B81FC018689282F30E0C901880F991F6C
:101CD000880F991F880F991F820F931F8C51944F63
:101CE000BA010E94EF0008C08A819B810C96BC015A
:101CF0008EE19CE00E94EF008A819B81FC01268995
:101D00008091E20B9091E30BFC018689821730F4FD
:101D100081E0898381E08093370C01C01982898139
:101D20000F900F900F900F900F90DF91CF9108952B
:101D3000CF93DF931F921F92CDB7DEB79A8389832B
:101D40002091380C89819A81FC0120832091320CEA
:101D50003091330C89819A81FC01328321830F9069
:101D60000F90DF91CF910895CF93DF93CDB7DEB77A
:101D700027970FB6F894DEBF0FBECDBF9D838C832F
:101D80007F836E830FB6F8940F928091320C9091FE
:101D9000330C9B838A838C819D81FC01908180918F
:101DA000380C981769F08C819D81FC01218132816A
:101DB0008A819B818217930718F081E089832FC065
:101DC0008C819D81FC01818192812A813B81281B2C
:101DD000390B8E819F81FC01808191812817390701
:101DE000E0F48E819F81FC01208131818C819D8175
:101DF000FC01418152818A819B81BA01681B790B68
:101E0000CB01280F391F8E819F81FC0131832083F4
:101E10008C819D818DDF198202C081E089830F90C2
:101E20000FBE898127960FB6F894DEBF0FBECDBFD7
:101E3000DF91CF910895CF93DF93CDB7DEB781E0E7
:101E40008093370CDF91CF9108950F931F93CF9319
:101E5000DF93CDB7DEB72A970FB6F894DEBF0FBE7B
:101E6000CDBF9B838A837D836C834E8338872F838A
:101E70001A870987198222C08981882F90E02981D9
:101E8000222F30E04C815D81240F351FF901408104
:101E90002A813B81820F931F4996FC0140838981EF
:101EA000882F90E02C813D81820F931FFC0180815F
:101EB000882309F406C089818F5F898389818830EE
:101EC000D8F28A819B81FC0110A28E81843010F0AF
:101ED00083E08E838A819B812E81FC01268B8A81FF
:101EE0009B8102960E94DD008A819B810C960E9454
:101EF000DD008A819B812A813B81FC01318720871B
:101F00008E81882F90E024E030E0281B390B8A81F5
:101F10009B81FC01358724878A819B812A813B81B3
:101F2000FC01338B228B8A819B81FC0111A212A2BE
:101F300013A214A28A819B81FC0115A22A960FB6D6
:101F4000F894DEBF0FBECDBFDF91CF911F910F91EF
:101F50000895CF93DF931F92CDB7DEB7198213C0D8
:101F60008981282F30E0C901880F991F880F991F98
:101F7000880F991F820F931F8C51944F0E94A700C6
:101F800089818F5F89838981843050F388E09CE068
:101F90000E94A70081E19CE00E94A7008EE19CE0E6
:101FA0000E94A70087E29CE00E94A70088E09CE0D6
:101FB00090931B0C80931A0C81E19CE090931D0C74
:101FC00080931C0C0F90DF91CF910895CF93DF93F6
:101FD00000D0CDB7DEB72CC0F8DB9091270C81E0A4
:101FE000992309F080E08983FCDB8981882301F54E
:101FF0000FB6F8940F9280912C0C90912D0CFC014F
:10200000868197819B838A838A819B8102960E9425
:10201000B3018091310C81508093310C8091300C50
:1020200081508093300C0F900FBE8A819B8198D095
:102030008091300C882381F60F900F900F90DF91E4
:10204000CF910895CF93DF931F921F92CDB7DEB744
:102050009A8389838091E20B9091E30B29813A81E5
:10206000FC01338322838091320C9091330C2981BF
:102070003A812817390778F48091E20B9091E30BAD
:102080009C012E5F3F4F80911C0C90911D0CB9015B
:102090000E943C011DC08091E20B9091E30B9C01DA
:1020A0002E5F3F4F80911A0C90911B0CB9010E943A
:1020B0003C01809100029091010229813A81281708
:1020C000390730F489819A8190930102809300024C
:1020D0000F900F90DF91CF910895CF93DF93CDB7FD
:1020E000DEB728970FB6F894DEBF0FBECDBF9E8334
:1020F0008D8378876F838F819885892B29F48D81D3
:102100009E810E947C0502C08F8198859C838B8371
:102110008B819C81892BB9F086E290E00E947C053E
:102120009A83898389819A81892B41F089819A8157
:102130002B813C81FC01308F278B07C08B819C81D8
:102140000E94CF0502C01A82198289819A8128963D
:102150000FB6F894DEBF0FBECDBFDF91CF910895CB
:10216000CF93DF931F921F92CDB7DEB79A838983F7
:1021700089819A81FC018789908D0E94CF05898190
:102180009A810E94CF050F900F90DF91CF91089513
:10219000CF93DF931F921F92CDB7DEB780911A0CB9
:1021A00090911B0CFC018081882339F48FEF9FEF05
:1021B000909301028093000215C080911A0C9091B7
:1021C0001B0CFC0185819681FC01868197819A8395
:1021D000898389819A81FC01828193819093010294
:1021E000809300020F900F90DF91CF910895CF93CD
:1021F000DF931F921F92CDB7DEB79A83898385E262
:1022000090E02FEFFC01208380E290E0FC018081D0
:10221000882F90E09093440C8093430C8091430C62
:102220009091440C8F3F9105E9F0000080E290E02E
:10223000FC0180818F3FD1F78091430C9091440C39
:102240008F37910561F080913B0C90913C0C20E020
:102250004FEF5FEF63E47CE00E94D20603C080EDA5
:1022600097E04DDACCCFCF93DF9300D01F92CDB75C
:10227000DEB79C838B831A82198280913B0C9091EC
:102280003C0C20E04FEF5FEFBE016F5F7F4F0E947D
:10229000D20785E290E029813A81F9012081FC0191
:1022A00020838AEF90E02BDAE8CFAF92BF92CF92F3
:1022B000DF92EF92FF920F93CF93DF93CDB7DEB70C
:1022C00081E290E0FC01108284E290E02FEFFC01BB
:1022D000208385E290E02FEFFC01208340E062E064
:1022E00084E10E946C0690933C0C80933B0CA12CE3
:1022F000B12CC12CD12C0F2EF5E4EF2EFCE0FF2EDB
:10230000F02D01E025E030E049EB50E067E072E0BD
:1023100087EF90E112D9A12CB12CC12CD12C0F2E1A
:10232000F7E4EF2EFCE0FF2EF02D02E024E030E099
:1023300049EB50E06EE072E083E391E1FED810DA01
:1023400080E090E0DF91CF910F91FF90EF90DF90D0
:10235000CF90BF90AF900895CF93DF93CDB7DEB706
:10236000DF91CF9108951F920F9200905F000F921E
:10237000112400905B000F922F933F938F939F93B4
:10238000EF93FF93CF93DF93CDB7DEB782E290E078
:1023900022E230E0F90120812D7FFC012083DF91D2
:1023A000CF91FF91EF919F918F913F912F910F903E
:1023B00000925B000F9000925F000F901F901895A5
:1023C000CF93DF9300D01F92CDB7DEB79A83898376
:1023D0007C836B8382E290E022E230E0F90120818D
:1023E0002068FC0120830F900F900F900F90DF91D9
:1023F000CF9108951F920F9200905F000F921124C9
:1024000000905B000F922F933F934F935F936F93D6
:102410007F938F939F93AF93BF93EF93FF93CF934C
:10242000DF931F921F92CDB7DEB71A8286EC90E041
:10243000FC018081898380913D0C90913E0CAE011E
:102440004E5F5F4F20E0BE016F5F7F4F0E947407B9
:102450008A81882311F00E9406040F900F90DF916B
:10246000CF91FF91EF91BF91AF919F918F917F910C
:102470006F915F914F913F912F910F9000925B0070
:102480000F9000925F000F901F9018951F920F926F
:1024900000905F000F92112400905B000F922F9329
:1024A0003F934F935F936F937F938F939F93AF93DC
:1024B000BF93EF93FF93CF93DF9300D0CDB7DEB7F9
:1024C00080913F0C9091400CAE014D5F5F4F9E019B
:1024D0002E5F3F4FB9010E949008813031F486ECA5
:1024E00090E02A81FC0120830DC081EC90E0FC018A
:1024F0008081898389818F7D898381EC90E0298126
:10250000FC0120830F900F900F90DF91CF91FF91EE
:10251000EF91BF91AF919F918F917F916F915F915B
:102520004F913F912F910F9000925B000F9000927E
:102530005F000F901F901895A1E21A2EAA1BBB1BDB
:10254000FD010DC0AA1FBB1FEE1FFF1FA217B3077F
:10255000E407F50720F0A21BB30BE40BF50B661F95
:10256000771F881F991F1A9469F760957095809559
:1025700090959B01AC01BD01CF010895FB01DC01E9
:1025800002C001900D9241505040D8F70895F89440
:02259000FFCF7B
:10259200FFFF49444C45005461736B203100546184
:0625A200736B2032000003
:00000001FF
