:020000020000FC
:1000000051C03217C1F13F930E9416004F914D939A
:100010003395F7CF0FEF07B9B5E0A0E00FEF0DBFB5
:1000200001E20EBF2DE0239531E0EBCF3F934F93DC
:10003000CF93DF93CDB7DEB729963A91313019F0DF
:10004000323009F007C001E00883DF91CF914F9172
:100050003F9108953A953F930E9416004F913A952B
:100060003F930E9416003F91430F4883DF91CF9149
:100070004F913F910895A0E00D91009502C0FCCFF3
:100080001FEF08B90E94480018B90E944800F4CF39
:1000900060EA70EA80EA8A95F1F77A95D9F76A956D
:1000A000C1F70895B5E5AAEABA0FBF3F09F00BC042
:1000B000C5E5DAEACD0FCF3F09F005C0A0E0B0E01A
:0600C000C0E0D0E0A7CF74
:00000001FF
