:020000020000FC
:100000000FEF07B9B5E5AAEABA0FBF3F01F0C5E5A2
:10001000DAEACD0FCF3F11F00FEFD9F1B0E0A0E059
:10002000C0E0D0E0B5E0A0E00FEF0DBF01E20EBFF1
:100030002DE0239531E0321761F13F930E942400B7
:100040004F914D933395F7CF3F934F93CF93DF93DA
:10005000CDB7DEB729963A91313019F0323009F038
:1000600007C001E00883DF91CF914F913F91089540
:100070003A953F930E9424004F913A953F930E94F6
:1000800024003F91430F4883DF91CF914F913F91DF
:100090000895A0E00D91009502C0FCCF1FEF08B9B4
:1000A0000E94560018B90E945600F4CF60EA70EA28
:1000B00080EA8A95F1F77A95D9F76A95C1F708959C
:00000001FF
