S01500004672656552544F532D546573742E7372656378
S11300000C943E000C945B000C945B000C945B001D
S11300100C945B000C945B000C945B000C945B00F0
S11300200C945B000C945B000C945B000C945B00E0
S11300300C945B000C94FB030C945B000C945B002D
S11300400C9455010C945B000C945B000C945B00C5
S11300500C94F1040C942F050C945B000C945B003D
S11300600C945B000C945B000C945B000C945B00A0
S11300700C9477050C94B5050C945B0011241FBEF9
S1130080CFEFD8E0DEBFCDBF11E0A0E0B1E0EAE5FC
S1130090FBE102C005900D92A834B107D9F723E023
S11300A0A8E4B1E001C01D92A43DB207E1F70E94AB
S11300B0F2000C94AB0D0C94000080914801811166
S11300C001C05A9A5D9A5D985C9A5C98E0914801E7
S11300D0F0E0EE0FFF1FEA5FFE4F8081809582B94A
S11300E085B1836085B995B1E0914801F0E0EE0FE8
S11300F0FF1FEA5FFE4F818183708095892385B954
S11301005A98809148018F5F8E3018F4809348018B
S1130110089510924801089561E070E080E090E055
S11301200E942D0B6FE086E291E00E947E0161E067
S11301308FEF90E00E947E01FFCFCF93DF931F9259
S1130140CDB7DEB706E011E08091490190914A01F4
S11301500097F1F320E04AE050E0BE016F5F7F4F6B
S11301600E9457078981813679F720E04AE050E000
S1130170BE016F5F7F4F8091490190914A010E94B7
S113018057078981813601F3813461F420E04AE024
S113019050E0BE016F5F7F4F8091490190914A0109
S11301A00E94570761E0CE0101960E947E01898179
S11301B0823639F4F80180819181969587959183EF
S11301C0808320E04AE050E0BE016F5F7F4F809162
S11301D0490190914A010E94570789818136A1F60D
S11301E0B3CF08950E9487015E9840E061E08EE1FC
S11301F00E94EC0690934A01809349010E943E01BB
S1130200E12CF12C00E020E030E045E550E066E32D
S113021071E08CE890E00E946F0804E020E030E098
S113022045E550E06EE371E08DE990E00E946F08CF
S11302308DE590E00E9443010E948409FFCFCF9393
S1130240DF9300D0CDB7DEB76A83809173019091BC
S11302507401009771F0198220E0AE014F5F5F4F87
S1130260BE016E5F7F4F0E941D07898181110E942C
S113027046030F900F90DF91CF91089590937401EE
S113028080937301089590937201809371018AE0C1
S113029087BD84B5826084BDEEE6F0E08081826033
S11302A0808385B5856085BD08951F920F920FB632
S11302B00F9211242F933F934F935F936F937F93E8
S11302C08F939F93AF93BF93EF93FF93E09171014B
S11302D0F0917201309709F00995FF91EF91BF9168
S11302E0AF919F918F917F916F915F914F913F91CA
S11302F02F910F900FBE0F901F901895462FBC01A1
S113030080917501909176010E94AE0408958F92B8
S11303109F92AF92BF92CF92DF92EF920F938EE5AE
S113032091E00E94D3018BE491E00E94D3010F2E4F
S1130330FFE18F2EF1E09F2EF02D0F2EFBE4AF2E68
S1130340F1E0BF2EF02D0F2EFEE5CF2EF1E0DF2ED3
S1130350F02DE12C00E023E040E052EC61E070E09D
S113036080E00E943404909376018093750188B1F3
S1130370836C88B95B9A8AB184678AB95E9A81B1C1
S11303808FEF81B984B1836084B984B18C6384B9FB
S11303900F91EF90DF90CF90BF90AF909F908F9090
S11303A0089508950895FC01108A118A128A089507
S11303B0FC0182898823D9F08189DF01A80FB11D4E
S11303C08C91DB018C93218930E02F5F3F4F2F709C
S11303D03078332334F421503109206F3F6F2F5F7D
S11303E03F4F218B82898150828B80E0089581E088
S11303F00895FC0142894031B8F4208930E0E20FCD
S1130400F31F60832F5F3F4F2F703078332334F412
S113041021503109206F3F6F2F5F3F4FFC01208B2C
S11304204F5F428B80E0089582E00895FC010396BB
S1130430928381832FEF3FEF3483238396838583D5
S11304409087878310820895FC0111861086089591
S1130450CF93DF939C01FB01DC011196CD91DC91DC
S11304601297D383C2838C819D81958384838C81ED
S11304709D81DC0113967C936E9312977D836C832C
S113048031872087F90180818F5F8083DF91CF914D
S11304900895CF93DF93EB01488159814F3F2FEFAC
S11304A0520721F4FC01A781B0850DC0DC0113962D
S11304B001C0DF011296ED91FC91139720813181E7
S11304C042175307B0F71296ED91FC911397FB83F3
S11304D0EA83D583C483BD83AC831396DC93CE9324
S11304E0129799878887FC0120812F5F2083DF91F1
S11304F0CF910895CF93DF93FC01A085B185C2818C
S1130500D381848195819D838C83C481D5818281AB
S113051093819B838A831196CD91DC911297CE1798
S1130520DF0731F48C819D8112969C938E931197F1
S1130530118610868C9181508C93DF91CF91089510
S113054031E1FC013083319722E220833197A3E328
S1130550A0833197608331977083319710823197EC
S113056060E8608331971082319762E0608331974D
S113057063E06083319764E06083319765E0608372
S1130580319766E06083319767E06083319768E074
S11305906083319769E06083319760E160833197CC
S11305A03083319732E13083319733E130833197AF
S11305B034E13083319735E13083319736E130834C
S11305C0319737E13083319738E13083319739E11E
S11305D03083319730E23083319731E23083319781
S11305E02083319723E220833197408331975083CE
S11305F0319726E22083319727E22083319728E23E
S11306002083319729E22083319720E32083319797
S113061021E32083869708951092890085EE8093C4
S113062088008BE080938100EFE6F0E080818260B7
S11306308083A091CE03B091CF03CD91CDBFDD9146
S1130640DEBFFF91EF91DF91CF91BF91AF919F9169
S11306508F917F916F915F914F913F912F911F9156
S11306600F91FF90EF90DF90CF90BF90AF909F904D
S11306708F907F906F905F904F903F902F901F903E
S11306800F900FBE0F90089581E008950F920FB65A
S1130690F8940F921F9211242F923F924F925F92DF
S11306A06F927F928F929F92AF92BF92CF92DF927E
S11306B0EF92FF920F931F932F933F934F935F9368
S11306C06F937F938F939F93AF93BF93CF93DF9356
S11306D0EF93FF93A091CE03B091CF030DB60D928B
S11306E00EB60D920E943C0BA091CE03B091CF03A5
S11306F0CD91CDBFDD91DEBFFF91EF91DF91CF9121
S1130700BF91AF919F918F917F916F915F914F9125
S11307103F912F911F910F91FF90EF90DF90CF9019
S1130720BF90AF909F908F907F906F905F904F900D
S11307303F902F901F900F900FBE0F9008950F922F
S11307400FB6F8940F921F9211242F923F924F925A
S11307505F926F927F928F929F92AF92BF92CF924D
S1130760DF92EF92FF920F931F932F933F934F9338
S11307705F936F937F938F939F93AF93BF93CF9325
S1130780DF93EF93FF93A091CE03B091CF030DB607
S11307900D920EB60D920E94B40981110E943C0B79
S11307A0A091CE03B091CF03CD91CDBFDD91DEBF3B
S11307B0FF91EF91DF91CF91BF91AF919F918F9175
S11307C07F916F915F914F913F912F911F910F9165
S11307D0FF90EF90DF90CF90BF90AF909F908F905D
S11307E07F906F905F904F903F902F901F900F904D
S11307F00FBE0F9008950E949F031895CF93DF9327
S1130800EC010E94AE098091770190917801892BC7
S113081031F48CE791E090937801809377012091F3
S1130820790130917A01CE01820F931F833F41E019
S1130830940770F42817390770F4C0917701D091A8
S11308407801C20FD31F90937A018093790105C078
S1130850C0E0D0E002C0C0E0D0E00E946F0ACE0148
S1130860DF91CF91089508954F925F926F927F9296
S11308708F929F92AF92BF92CF92DF92FF920F938B
S11308801F93CF93DF93CDB7DEB7F82E2A013B0138
S113089088E090E00E946E0C8C018F2D90E0880F10
S11308A0991FFC01E159FC4F11830083FC01EE5DAB
S11308B0FE4F80819181D80111969C938E9313965B
S11308C0BC92AE9212971596DC92CE92149717961C
S11308D09C928E921697FFB6F894ED91FC91119725
S11308E03697808182608083CD90DC90D301C201F1
S11308F0880F991FAA1FBB1F880F991FAA1FBB1F10
S11309009C01AD01220F331F441F551F60E070E0AE
S113091081EE90E00E944C0C2150F6013297208326
S1130920D801ED91FC911197359788E98083ED9179
S1130930FC91349786E08083FFBEC801DF91CF919C
S11309401F910F91FF90DF90CF90BF90AF909F9039
S11309508F907F906F905F904F900895EF92FF92E9
S11309600F931F93CF93DF93FC01A281B381109760
S113097079F0E42FF0E052965C9120E130E0251B01
S113098031092E173F071CF17C01411104C016C028
S11309904230F8F4F9CFEB014150042F10E00F5F1F
S11309A01F4F060F171F6991D70112968D919C91C5
S11309B013970E94F901C017D107A9F7D701ED9148
S11309C0FC91359780818062808380E003C082E05F
S11309D001C082E0DF91CF911F910F91FF90EF90C2
S11309E008951F920F920FB60F9211242F933F93E5
S11309F04F935F936F937F938F939F93AF93BF9323
S1130A00CF93EF93FF93E0916F03F09170033097CE
S1130A10A1F0C091C6006C2F848195810E94F901D8
S1130A2080916F0390917003DC011696ED91FC9117
S1130A301797309711F06C2F0995FF91EF91CF9193
S1130A40BF91AF919F918F917F916F915F914F91E2
S1130A503F912F910F900FBE0F901F9018951F92EA
S1130A600F920FB60F9211242F933F934F935F93DE
S1130A706F937F938F939F93AF93BF93EF93FF9362
S1130A80CF93DF931F92CDB7DEB7E0916F03F09160
S1130A907003309799F0BE016F5F7F4F828193811D
S1130AA00E94D801811104C089818093C6000BC0C3
S1130AB0E1ECF0E080818F7D808305C0E1ECF0E023
S1130AC080818F7D80830F90DF91CF91FF91EF9193
S1130AD0BF91AF919F918F917F916F915F914F9152
S1130AE03F912F910F900FBE0F901F9018951F925A
S1130AF00F920FB60F9211242F933F934F935F934E
S1130B006F937F938F939F93AF93BF93CF93EF9301
S1130B10FF93E0917103F09172033097A1F0C091BB
S1130B20CE006C2F848195810E94F901809171031C
S1130B3090917203DC011696ED91FC911797309712
S1130B4011F06C2F0995FF91EF91CF91BF91AF9167
S1130B509F918F917F916F915F914F913F912F91D1
S1130B600F900FBE0F901F9018951F920F920FB603
S1130B700F9211242F933F934F935F936F937F931F
S1130B808F939F93AF93BF93EF93FF93CF93DF9391
S1130B901F92CDB7DEB7E0917103F09172033097E5
S1130BA099F0BE016F5F7F4F828193810E94D801CB
S1130BB0811104C089818093CE000BC0E9ECF0E080
S1130BC080818F7D808305C0E9ECF0E080818F7D9A
S1130BD080830F90DF91CF91FF91EF91BF91AF91FF
S1130BE09F918F917F916F915F914F913F912F9141
S1130BF00F900FBE0F901F9018950F931F93CF93D4
S1130C00DF93EC01042F1A8D8C8D8823C9F14111D7
S1130C1017C0482F50E08C819D810E949B0D2C8D24
S1130C208C819D81820F911D9D838C832A813B81C0
S1130C308217930728F1888199819D838C8320C032
S1130C40482F50E08E819F810E949B0D8C8D90E0F7
S1130C509195819591092E813F81280F391F3F83FA
S1130C602E83488159812417350730F42A813B812A
S1130C70820F931F9F838E83023011F41111115040
S1130C801F5F1A8F80E0DF91CF911F910F9108951C
S1130C90FC01448D4423A9F050E026813781240FC0
S1130CA0351F37832683828193812817390720F0E3
S1130CB08081918197838683CB01668177810E94AD
S1130CC09B0D0895EF92FF920F931F93CF938C0186
S1130CD00FB6F8940F92FC01C68D1C16ACF48189F2
S1130CE0811106C011C0F8019189911105C00CC091
S1130CF07801F1E1EF0EF11CC7010E94C30B8111D1
S1130D000E94480CC15079F78FEFF801868F0F903D
S1130D100FBE0FB6F8940F92C58D1C16ACF48085E7
S1130D20811106C011C0F8019085911105C00CC055
S1130D307801F8E0EF0EF11CC7010E94C30B81118A
S1130D400E94480CC15079F78FEFF801858F0F90FE
S1130D500FBECF911F910F91FF90EF900895CF9305
S1130D60DF93EC010FB6F8940F92488159812C8DD2
S1130D7030E07B8D729FC001739F900D1124FA01A6
S1130D80E80FF91FFB83EA831A8E5D834C83821B71
S1130D90930B840F951F9F838E838FEF8D8F8E8F80
S1130DA061110CC08885882389F0CE0108960E94C1
S1130DB0C30B882359F00E94460308C0CE0108964D
S1130DC00E941602CE0141960E9416020F900FBE99
S1130DD081E0DF91CF910895FF920F931F93CF93FA
S1130DE0DF93082F162FF42E6623C9F0869FC001C7
S1130DF0112481960E94FE03EC01009749F416C069
S1130E000B8F1C8F61E0CE010E94AF06F8A20EC0CA
S1130E10819699838883F4CFD983C883F1CF81E203
S1130E2090E00E94FE03EC01892BB1F7CE01DF9123
S1130E30CF911F910F91FF900895EF92FF920F931E
S1130E401F93CF93DF938A01FC01528D338D531787
S1130E5010F02230F1F4422F7801EC011E8D0E9433
S1130E60FD051F3F81F489898823A9F0CE014196AD
S1130E700E94C30B882389F0E114F10481F081E01E
S1130E80F70180830DC0FF24F394F10EFE8E81E000
S1130E9007C080E005C081E003C081E001C081E0BB
S1130EA0DF91CF911F910F91FF90EF9008958F9252
S1130EB09F92AF92BF92CF92DF92EF92FF920F93E5
S1130EC01F93CF93DF9300D000D01F92CDB7DEB72E
S1130ED08C015B015D834C83822EE12C99249394D5
S1130EE06C0181E1C80ED11C0FB6F8940F92F80181
S1130EF0F28CFF2041F1C680D780B501C8010E9461
S1130F00480681100FC0FA94F801F28E8085882378
S1130F10B1F0C80108960E94C30B882381F00E9497
S1130F2046030DC0F801D782C6828189882339F02F
S1130F30C80141960E94C30B81110E9446030F9081
S1130F400FBE81E057C04C815D81452B21F40F9089
S1130F500FBE80E04FC0E11005C0CE0101960E9493
S1130F600B0CE92C0F900FBE0E94AE090FB6F8943B
S1130F700F92F801858D8F3F09F4158EF801968D37
S1130F809F3F09F4168E0F900FBEBE016C5F7F4F1A
S1130F90CE0101960E94160C81111EC00FB6F89462
S1130FA00F92F801828D0F900FBE81110FC06C81DA
S1130FB07D81C6010E94B00BC8010E9462060E9496
S1130FC06F0A811191CF0E9446038ECFC8010E94FF
S1130FD062060E946F0A88CFC8010E9462060E94BE
S1130FE06F0A0FB6F8940F92F801828D0F900FBE1E
S1130FF081117ACF0F900F900F900F900F90DF9187
S1131000CF911F910F91FF90EF90DF90CF90BF9001
S1131010AF909F908F900895E0919603F09197037D
S11310208081811107C08FEF9FEF909377038093A6
S113103076030895E0919603F09197030580F68175
S1131040E02D0680F781E02D8281938190937703D0
S11310508093760308950F931F93CF93DF93EC014E
S113106000917E0310917F038091CE039091CF0372
S113107002960E947A02C00FD11FE091CE03F09134
S1131080CF03D383C283C017D10768F46091CE0322
S11310907091CF0380919403909195036E5F7F4F7D
S11310A00E94490217C06091CE037091CF038091D2
S11310B09603909197036E5F7F4F0E94490280913F
S11310C0760390917703C817D90720F4D093770358
S11310D0C0937603DF91CF911F910F9108954F92A2
S11310E05F926F927F928F929F92AF92BF92CF92B4
S11310F0DF92EF92FF920F93CF93DF934C01EB01BA
S11311006A012901CA010E94FE035C01892B09F4CA
S1131110EAC08AE290E00E94FE033C010097B9F025
S1131120FC01B08EA78AA60165EA70E0C5010E94A1
S1131130A40DF1E0CF1AD108F3018789908DC80E70
S1131140D91E8881818F8881811105C014C0C50191
S11311500E943304C8C0D3015A96FE0131969E0101
S1131160285F3F4FEF0181918D938881882319F087
S1131170E217F307B9F7F30110A2043008F003E013
S1131180F301068BE3012296CE010E942402C301DF
S11311900C960E942402F3017186608684E090E03C
S11311A0801B910995878487738A628A14A213A28B
S11311B015A216A217A210A611A6A201B401C60177
S11311C00E94A002F30191838083E114F10419F0D9
S11311D0F701718260820FB6F8940F9280918003B8
S11311E08F5F809380038091CE039091CF03892BEE
S11311F0A9F57092CF036092CE0380918003813071
S1131200F1F58AEA93E00E94160283EB93E00E94D0
S113121016028CEB93E00E94160285EC93E00E9488
S1131220160281EA93E00E94160288E993E00E9484
S113123016028BE893E00E94160282E893E00E9473
S1131240160281EA93E0909397038093960388E9CA
S113125093E0909395038093940311C080917C0351
S113126081110DC0E091CE03F091CF039689F30173
S11312708689891720F07092CF036092CE03809103
S113128078038F5F80937803F30181A3868990911B
S11312907D03981710F480937D0390E09C01220F46
S11312A0331F220F331F220F331F820F931FBE01E0
S11312B086559C4F0E9428020F900FBE80917C039C
S11312C0882369F0E091CE03F091CF039689F3016E
S11312D08689981730F40E94460381E005C081E0B6
S11312E003C081E001C08FEFDF91CF910F91FF9098
S11312F0EF90DF90CF90BF90AF909F908F907F90B2
S11313006F905F904F900895EF92FF920F930F2E7E
S1131310F4E7EF2EF3E0FF2EF02D00E020E030E0C4
S113132045E550E063E471E08EEE9AE00E946F08B8
S1131330813081F4F8948FEF9FEF9093770380933B
S1131340760381E080937C0310927F0310927E03E6
S11313500E940C030F91FF90EF9008958091730306
S11313608F5F809373030895CF92DF92EF92FF9281
S11313700F931F93CF93DF9380917303811199C0CF
S1131380E0907E03F0907F038FEFE81AF80AF09262
S11313907F03E0927E03E114F104B9F48091960393
S11313A09091970320919403309195033093970380
S11313B020939603909395038093940380917903EB
S11313C08F5F809379030E940C088091760390913B
S11313D07703E816F90610F4D12C53C0D12CCC2491
S11313E0C394E0919603F09197039081911107C003
S11313F08FEF9FEF909377038093760342C0E09141
S11314009603F09197030580F681E02DC681D7817C
S11314102A813B81E216F30628F430937703209364
S113142076032FC08E010E5F1F4FC8010E947A02FF
S11314308C899D89892B21F0CE010C960E947A0219
S11314402E8980917D03821710F420937D0330E070
S1131450C901880F991F880F991F880F991F820F40
S1131460931FB80186559C4F0E942802E091CE0339
S1131470F091CF039E898689981708F4B2CFDC2CAB
S1131480B0CFE091CE03F091CF03868990E0FC01C8
S1131490EE0FFF1FEE0FFF1FEE0FFF1F8E0F9F1F9C
S11314A0FC01E655FC4F8081823048F0DD24D39462
S11314B006C080917B038F5F80937B03D12C809146
S11314C07A03882311F0DD24D3948D2DDF91CF91FD
S11314D01F910F91FF90EF90DF90CF900895DF92CE
S11314E0EF92FF920F931F93CF93DF930FB6F8946D
S11314F00F928091730381508093730380917303DF
S113150081115FC080918003811133C05DC0D70118
S11315101596ED91FC911697C681D781CE010C9654
S11315200E947A028E010E5F1F4FC8010E947A0248
S11315302E8980917D03821710F420937D0330E07F
S1131540C901880F991F880F991F880F991F820F4F
S1131550931FB80186559C4F0E942802E091CE0348
S1131560F091CF039E898689981768F0D0927A0308
S11315700AC0C0E0D0E00F2EFBE8EF2EF3E0FF2E10
S1131580F02DDD24D394F70180818111C0CFCD2BC0
S113159011F00E940C08C0917B03CC2351F0D1E0E0
S11315A00E94B4098111D0937A03C150C9F71092F3
S11315B07B0380917A03882331F00E94460381E003
S11315C003C080E001C080E00F900FBEDF91CF9197
S11315D01F910F91FF90EF90DF90089502E813E0C0
S11315E00F2EFAEAEF2EF3E0FF2EF02D29C00E9411
S11315F0AE09D801CC910E946F0ACC2309F10FB631
S1131600F8940F92D8011596ED91FC911697C68126
S1131610D781CE0102960E947A0280918003815084
S113162080938003809181038150809381030F9084
S11316300FBE8F89988D0E943304CE010E9433041B
S1131640809181038111D3CFF7018081823010F022
S11316500E9446030E94F100F3CF009721F4809189
S1131660CE039091CF030FB6F8940F92FC0174A3AC
S113167063A30F900FBE089580917303882321F014
S113168081E080937A03089510927A03E091CE0367
S1131690F091CF0383A10E94D20120917D03822F78
S11316A090E0FC01EE0FFF1FEE0FFF1FEE0FFF1F78
S11316B0E80FF91FE655FC4F3081311111C021505C
S11316C0822F90E0FC01EE0FFF1FEE0FFF1FEE0FC5
S11316D0FF1FE80FF91FE655FC4F3081332379F3E0
S11316E0AC01440F551F440F551F440F551F480F9D
S11316F0591FDA01A655BC4F1196ED91FC91129732
S11317000280F381E02D1296FC93EE9311974355DA
S11317105C4FE417F50729F442815381FD0152839C
S11317204183FC01EE0FFF1FEE0FFF1FEE0FFF1FA3
S11317308E0F9F1FFC01E655FC4F0180F281E02DC6
S1131740868197819093CF038093CE0320937D036A
S1131750E091CE03F091CF0383A10E94D1010895BB
S1131760CF93DF93EB012091CE033091CF03B901E6
S1131770645F7F4F0E94490261E0CE010E942B0802
S1131780DF91CF9108950F931F93CF93DF93DC01E3
S11317901596ED91FC911697C681D7818E01045F51
S11317A01F4FC8010E947A028091730381111CC0EB
S11317B00A501109C8010E947A022E8980917D0382
S11317C0821710F420937D0330E0C901880F991F1C
S11317D0880F991F880F991F820F931FB801865590
S11317E09C4F0E94280205C0B8018BE893E00E9438
S11317F02802E091CE03F091CF039E898689891750
S113180020F481E080937A0301C080E0DF91CF91DE
S11318101F910F91089520917903FC012083209159
S11318207E0330917F03328321830895CF93DF9326
S1131830FC010FB6F8940F9220917E0330917F0340
S1131840809179039081981729F0818192812817DA
S11318503907B0F4A181B281EB0148815981C901F2
S11318608A1B9B0B8417950768F4CF01A21BB30B4B
S11318704A0F5B1F598348830E940B0C80E003C00E
S113188081E001C081E00F900FBEDF91CF910895F8
S113189081E080937A030895A1E21A2EAA1BBB1B50
S11318A0FD010DC0AA1FBB1FEE1FFF1FA217B30728
S11318B0E407F50720F0A21BB30BE40BF50B661F3E
S11318C0771F881F991F1A9469F760957095809502
S11318D090959B01AC01BD01CF010895CF93DF9397
S11318E08230910510F482E090E0E091D203F0910F
S11318F0D30320E030E0C0E0D0E0309711F1408124
S1131900518148175907C0F04817590761F482817B
S11319109381209719F09B838A832BC09093D303E0
S11319208093D20326C02115310519F042175307BD
S113193018F49A01BE01DF01EF010280F381E02D6A
S1131940DCCF2115310509F1281B390B2430310571
S113195090F412968D919C9113976115710521F065
S1131960FB019383828304C09093D3038093D203B7
S1131970FD01329644C0FD01E20FF31F8193919360
S1131980225031092D933C933AC02091D0033091D9
S1131990D103232B41F420910201309103013093B0
S11319A0D1032093D003209100013091010121152E
S11319B0310541F42DB73EB7409104015091050122
S11319C0241B350BE091D003F091D103E217F30708
S11319D0A0F42E1B3F0B2817390778F0AC014E5F9B
S11319E05F4F2417350748F04E0F5F1F5093D10304
S11319F04093D0038193919302C0E0E0F0E0CF01E3
S1131A00DF91CF9108950F931F93CF93DF930097A6
S1131A1009F48CC0FC013297138212820091D20324
S1131A201091D3030115110581F420813181820FB6
S1131A30931F2091D0033091D1032817390779F5EA
S1131A40F093D103E093D00371C0D80140E050E09B
S1131A50AE17BF0750F412962D913C911397AD0128
S1131A602115310509F1D901F3CF9D01DA01338341
S1131A70228360817181860F971F8217930769F40F
S1131A80EC0128813981260F371F2E5F3F4F3183A8
S1131A9020838A819B8193838283452B29F4F0934D
S1131AA0D303E093D20342C01396FC93EE931297B0
S1131AB0ED01499159919E01240F351FE217F30757
S1131AC071F480819181840F951F029611969C93E5
S1131AD08E938281938113969C938E931297E0E068
S1131AE0F0E0D80112968D919C911397009719F00C
S1131AF0F8018C01F6CF8D919C9198012E5F3F4F98
S1131B00820F931F2091D0033091D10328173907F6
S1131B1069F4309729F41092D3031092D20302C0CF
S1131B20138212821093D1030093D003DF91CF91DB
S1131B301F910F910895FB01DC0102C001900D92E9
S1131B4041505040D8F70895DC0101C06D934150D5
S10D1B505040E0F70895F894FFCF29
S1131B5A0000D4032000FF03FF03FF03FF03FF0376
S1131B6AFF03FF03FF03FF03FF03FF03FF03FF0357
S1131B7AFF03C600CE005468656E2077652053744F
S1131B8A617274210A00537461727475700065631A
S10B1B9A686F0049444C45004A
S9030000FC
