:100000008DC00000ACC00000AAC00000A8C0000065
:10001000A6C00000A4C00000A2C00000A0C0000054
:100020009EC000009CC000009AC0000098C0000064
:1000300096C0000094C0000092C0000090C0000074
:100040008EC000008CC000008AC0000088C0000084
:1000500086C0000084C0000082C0000080C0000094
:100060007EC000000C9414180C94601878C0000036
:1000700076C0000074C0000072C0000070C00000B4
:100080000C9469096CC000006AC0000068C00000E0
:1000900066C0000064C0000062C0000060C00000D4
:1000A0005EC000005CC000005AC0000058C00000E4
:1000B00056C0000054C0000052C0000050C00000F4
:1000C0004EC000004CC000004AC0000048C0000004
:1000D00046C0000044C0000042C0000040C0000014
:1000E0003EC000005E035E035E03B8039803B303E3
:1000F0005E035E03B8039803CF93DF931F921F92B2
:10010000CDB7DEB79A8389830E94E71480912C0CC7
:10011000823008F069D70E94C617F6CF11241FBE9F
:10012000CFEFD1E2DEBFCDBF00E00CBF12E0A0E018
:10013000B2E0E6EDF1E300E00BBF02C007900D92E4
:10014000A434B107D9F72CE0A4E4B2E001C01D92B9
:10015000A23AB207E1F70E9406170C94E9180C9432
:10016000CD17AF92BF92CF92DF92EF92FF920F9393
:10017000CF93DF931F92CDB7DEB71982AAD38091B8
:100180005A0290915B02892B91F0A12CB12CC12CC9
:10019000D12CE12CF12C05E020E030E049EB50E0DF
:1001A00062E072E086EF91E00E94D00E898389813F
:1001B0000F90DF91CF910F91FF90EF90DF90CF9054
:1001C000BF90AF9008950F931F93CF93DF93CDB758
:1001D000DEB72B970FB6F894DEBF0FBECDBF9C8362
:1001E0008B837E836D834F83398728871B870A879C
:1001F0008D819E81892B19F41A82198230C083E186
:1002000090E00E946B099A83898389819A81892B66
:1002100031F15FD389819A812B813C81FC0131834B
:10022000208389819A812D813E81FC013587248735
:1002300089819A812F81FC01268789819A8128856D
:100240003985FC01308B278789819A812A853B85F6
:10025000FC01328B218B89819A8102969CD3898102
:100260009A812B960FB6F894DEBF0FBECDBFDF91FB
:10027000CF911F910F9108950F931F93CF93DF9309
:10028000CDB7DEB72F970FB6F894DEBF0FBECDBF48
:1002900098878F8369875B874A873D872C871F876D
:1002A0000E87198280915A0290915B02892BD1F1BD
:1002B00089858A838A859B859C838B838F8198859A
:1002C0009E838D838985863004F50E94F8158230DF
:1002D00071F480915A0290915B024E855F85BE0158
:1002E0006E5F7F4F20E00E94C20A89831BC080910D
:1002F0005A0290915B02BE016E5F7F4F20E040E0AA
:1003000050E00E94C20A89830DC080915A029091E8
:100310005B024C855D85BE016E5F7F4F20E00E94D1
:10032000670B898389812F960FB6F894DEBF0FBEC5
:10033000CDBFDF91CF911F910F9108950F931F9320
:10034000CF93DF93CDB7DEB727970FB6F894DEBF14
:100350000FBECDBF9D838C837F836E8380915602B9
:1003600090915702FC0185819681FC0186819781DD
:100370009A83898389819A810296E3D389819A81BC
:10038000FC0186858130F1F489819A81FC01248504
:1003900035858C819D81B901680F791F2C813D8144
:1003A0004E815F8189819A81DED0813059F44C8100
:1003B0005D8189819A8100E010E020E030E060E01A
:1003C0005BDF8B8389819A81FC0121893289898154
:1003D0009A81F901199527960FB6F894DEBF0FBEE2
:1003E000CDBFDF91CF911F910F910895CF93DF93F0
:1003F00000D01F921F92CDB7DEB79D838C83CE01B4
:1004000003964DD09A8389832B8189819A81622FAB
:1004100002D014D1F4CFCF93DF9300D000D0CDB76A
:10042000DEB79D838C836E830E947F10CE0103967E
:100430006BD09A8389838B81882331F58E818823C1
:1004400081F42C813D8189819A818217930748F03C
:100450000E948B1029813A818C819D81B9016EDFC8
:1004600015C02C813D8189819A81281B390B80918F
:100470005A0290915B02B9010E94900E0E948B106B
:10048000882321F4B1D502C00E948B1026960FB6A6
:10049000F894DEBF0FBECDBFDF91CF910895CF930B
:1004A000DF9300D01F92CDB7DEB79C838B83809102
:1004B000560290915702FC01908181E0992309F046
:1004C00080E0282F8B819C81FC0120838B819C8183
:1004D000FC018081882369F4809156029091570233
:1004E000FC0185819681FC01808191819A838983B9
:1004F00002C01A82198289819A810F900F900F9001
:100500000F90DF91CF910895CF93DF9300D01F928A
:10051000CDB7DEB79C838B830E9417119A838983A2
:1005200080915C0290915D0229813A8128173907F8
:1005300038F438D18B819C8121E0FC01208304C0F8
:100540008B819C81FC01108289819A8190935D024C
:1005500080935C0289819A810F900F900F900F9089
:10056000DF91CF910895CF93DF93CDB7DEB7299771
:100570000FB6F894DEBF0FBECDBF9B838A837D8309
:100580006C835F834E833987288719828A819B8198
:100590002C813D81FC01338322838A819B812A81C6
:1005A0003B81FC01318720872C813D818E819F8199
:1005B00082179307E8F02E813F8188859985281B53
:1005C000390B8A819B81FC01848595852817390721
:1005D00018F081E0898328C08A819B819C012E5F6D
:1005E0003F4F8091580290915902B90133D21CC0FB
:1005F0002E813F81888599852817390750F42C81F1
:100600003D81888599852817390718F081E089830D
:100610000BC08A819B819C012E5F3F4F80915602C7
:1006200090915702B90116D2898129960FB6F89494
:10063000DEBF0FBECDBFDF91CF9108950F931F9303
:10064000CF93DF93CDB7DEB72B970FB6F894DEBF0D
:100650000FBECDBF8DC08E8188230CF489C08985E3
:100660009A859A83898389819A81DC011A968D9172
:100670009C911B97892B21F089819A81029661D2E6
:10068000CE010B9641DF9C838B838E81082E000C5C
:10069000990B092E000CAA0BBB0B40E050E029E09F
:1006A00030E0841B950B2817390708F460C0FC0163
:1006B0008827EE58FF4F8F4F0C94D818EF81F8859C
:1006C0002F81388589819A81DC011C968D919C91BE
:1006D0001D97B901680F791F4B815C8189819A81CF
:1006E0009F0141DF813019F589819A81FC012189BF
:1006F000328989819A81F901199589819A81DC0170
:100700001E968C91813099F42F81388589819A8148
:10071000FC0184859585A901480F591F89819A811B
:1007200000E010E020E030E060E0A6DD8D8320C036
:100730002F81388589819A81DC011D963C932E9307
:100740001C9789819A81FC01248535858B819C8148
:10075000B901680F791F2B813C814B815C818981B4
:100760009A8101DF05C089819A8108D601C0000005
:1007700080915A0290915B02BE016A5F7F4F20E038
:1007800040E050E00E94C50B882309F064CF2B960F
:100790000FB6F894DEBF0FBECDBFDF91CF911F9192
:1007A0000F9108950F931F93CF93DF93CDB7DEB7CB
:1007B00029970FB6F894DEBF0FBECDBF62C08091FF
:1007C000560290915702FC0185819681FC0180813F
:1007D00091819A8389838091560290915702FC01FE
:1007E00085819681FC01868197819C838B838B8197
:1007F0009C810296A6D18B819C81FC012189328942
:100800008B819C81F90119958B819C81FC018685E6
:100810008130B9F58B819C81FC01248535858981E6
:100820009A81820F931F9E838D832D813E818981C2
:100830009A8182179307D0F48B819C812D813E8110
:10084000FC01338322838B819C812B813C81FC01C1
:10085000318720878B819C819C012E5F3F4F809147
:10086000560290915702B901F5D00BC049815A81C7
:100870008B819C8100E010E020E030E060E0FCDC57
:100880008F838091560290915702FC0180818823CA
:1008900009F095CF809156029091570299878887E9
:1008A000809158029091590290935702809356027A
:1008B00088859985909359028093580229960FB69E
:1008C000F894DEBF0FBECDBFDF91CF911F910F9186
:1008D0000895CF93DF93CDB7DEB70FB6F8940F929C
:1008E00080915A0290915B02892BD1F484E492E0CA
:1008F0001CD08DE492E019D084E492E090935702EA
:10090000809356028DE492E09093590280935802AE
:1009100040E065E08AE0D0D590935B0280935A0274
:100920000F900FBEDF91CF910895CF93DF931F9269
:100930001F92CDB7DEB79A83898389819A819C0102
:100940002D5F3F4F89819A81FC0132832183898108
:100950009A812FEF3FEFFC013483238389819A81B1
:100960009C012D5F3F4F89819A81FC01368325834D
:1009700089819A819C012D5F3F4F89819A81FC0179
:100980003087278389819A81FC0110820F900F9014
:10099000DF91CF910895CF93DF931F921F92CDB730
:1009A000DEB79A83898389819A81FC01118610863A
:1009B0000F900F90DF91CF910895CF93DF9300D0E8
:1009C00000D0CDB7DEB79C838B837E836D838B8114
:1009D0009C81FC01818192819A8389838D819E8192
:1009E00029813A81FC013383228389819A81FC0128
:1009F000248135818D819E81FC0135832483898109
:100A00009A81FC01848195812D813E81FC01338393
:100A1000228389819A812D813E81FC013583248343
:100A20008D819E812B813C81FC01318720878B81C8
:100A30009C81FC01808121E0280F8B819C81FC013D
:100A4000208326960FB6F894DEBF0FBECDBFDF9190
:100A5000CF910895CF93DF93CDB7DEB728970FB628
:100A6000F894DEBF0FBECDBF9E838D8378876F83E2
:100A70008F819885FC01808191819C838B838B8100
:100A80009C81019641F48D819E81FC018781908536
:100A90009A8389831AC08D819E8103969A83898364
:100AA00007C089819A81FC01828193819A8389831D
:100AB00089819A81FC0182819381FC0120813181AD
:100AC0008B819C818217930760F789819A81FC0151
:100AD000228133818F819885FC01338322838F812A
:100AE0009885FC01828193812F813885FC013583B3
:100AF00024838F81988529813A81FC013583248361
:100B000089819A812F813885FC01338322838F81EB
:100B100098852D813E81FC01318720878D819E81C2
:100B2000FC01808121E0280F8D819E81FC012083C2
:100B300028960FB6F894DEBF0FBECDBFDF91CF91E0
:100B40000895CF93DF9300D01F92CDB7DEB79C837B
:100B50008B838B819C81FC01808591859A8389831D
:100B60008B819C81FC01828193812B813C81F901E5
:100B700024813581FC01358324838B819C81FC0198
:100B8000848195812B813C81F90122813381FC0193
:100B90003383228389819A81FC01218132818B8177
:100BA0009C812817390751F48B819C81FC01248199
:100BB000358189819A81FC01328321838B819C81DB
:100BC000FC011186108689819A81FC0180812FEFBA
:100BD000280F89819A81FC01208389819A81FC01F7
:100BE00080810F900F900F900F90DF91CF9108951B
:100BF000CF93DF93CDB7DEB728970FB6F894DEBF5B
:100C00000FBECDBF9C838B837E836D8358874F83BC
:100C10008B819C8121E1FC0120838B819C81019748
:100C20009C838B838B819C8122E2FC0120838B81BE
:100C30009C8101979C838B838B819C8123E3FC01A6
:100C400020838B819C8101979C838B838D819E81E6
:100C50009A83898329818B819C81FC0120838B81EC
:100C60009C8101979C838B8389819A81892F992705
:100C70009A83898329818B819C81FC0120838B81CC
:100C80009C8101979C838B838B819C81FC011082CA
:100C90008B819C8101979C838B838B819C81FC0140
:100CA00010828B819C8101979C838B838B819C819B
:100CB00020E8FC0120838B819C8101979C838B839E
:100CC0008B819C81FC0110828B819C8101979C838C
:100CD0008B838B819C81FC0110828B819C8101978D
:100CE0009C838B838B819C81FC0110828B819C81F6
:100CF00001979C838B838B819C8122E0FC01208364
:100D00008B819C8101979C838B838B819C8123E0C9
:100D1000FC0120838B819C8101979C838B838B8139
:100D20009C8124E0FC0120838B819C8101979C8322
:100D30008B838B819C8125E0FC0120838B819C81AE
:100D400001979C838B838B819C8126E0FC0120830F
:100D50008B819C8101979C838B838B819C8127E075
:100D6000FC0120838B819C8101979C838B838B81E9
:100D70009C8128E0FC0120838B819C8101979C83CE
:100D80008B838B819C8129E0FC0120838B819C815A
:100D900001979C838B838B819C8120E1FC012083C4
:100DA0008B819C8101979C838B838B819C8121E12A
:100DB000FC0120838B819C8101979C838B838B8199
:100DC0009C8122E1FC0120838B819C8101979C8383
:100DD0008B838B819C8123E1FC0120838B819C810F
:100DE00001979C838B838B819C8124E1FC01208370
:100DF0008B819C8101979C838B838B819C8125E1D6
:100E0000FC0120838B819C8101979C838B838B8148
:100E10009C8126E1FC0120838B819C8101979C832E
:100E20008B838B819C8127E1FC0120838B819C81BA
:100E300001979C838B838B819C8128E1FC0120831B
:100E40008B819C8101979C838B838B819C8129E181
:100E5000FC0120838B819C8101979C838B838B81F8
:100E60009C8120E2FC0120838B819C8101979C83E3
:100E70008B838B819C8121E2FC0120838B819C816F
:100E800001979C838B838B819C8122E2FC012083D0
:100E90008B819C8101979C838B838B819C8123E236
:100EA000FC0120838B819C8101979C838B838F81A4
:100EB00098859A83898329818B819C81FC01208379
:100EC0008B819C8101979C838B8389819A81892F57
:100ED00099279A83898329818B819C81FC012083B6
:100EE0008B819C8101979C838B838B819C8126E2E3
:100EF000FC0120838B819C8101979C838B838B8158
:100F00009C8127E2FC0120838B819C8101979C833B
:100F10008B838B819C8128E2FC0120838B819C81C7
:100F200001979C838B838B819C8129E2FC01208328
:100F30008B819C8101979C838B838B819C8120E397
:100F4000FC0120838B819C8101979C838B838B8107
:100F50009C8121E3FC0120838B819C8101979C83F0
:100F60008B838B819C8128960FB6F894DEBF0FBED1
:100F7000CDBFDF91CF910895CF93DF93CDB7DEB78B
:100F800010D1A0912A0CB0912B0CCD91CDBFDD9149
:100F9000DEBFFF91EF91DF91CF91BF91AF919F9114
:100FA0008F917F916F915F914F913F912F911F9101
:100FB0000F91FF90EF90DF90CF90BF90AF909F90F8
:100FC0008F907F906F905F904F903F902F901F90E9
:100FD0000F900CBE0F900BBE0F900FBE0F90089598
:100FE00081E0DF91CF9108950F920FB6F8940F92A0
:100FF0000BB60F920CB60F921F9211242F923F92B4
:101000004F925F926F927F928F929F92AF92BF9218
:10101000CF92DF92EF92FF920F931F932F933F9304
:101020004F935F936F937F938F939F93AF93BF93F0
:10103000CF93DF93EF93FF93A0912A0CB0912B0CE9
:101040000DB60D920EB60D920E941C12A0912A0CA4
:10105000B0912B0CCD91CDBFDD91DEBFFF91EF9113
:10106000DF91CF91BF91AF919F918F917F916F91C0
:101070005F914F913F912F911F910F91FF90EF90B2
:10108000DF90CF90BF90AF909F908F907F906F90A8
:101090005F904F903F902F901F900F900CBE0F903D
:1010A0000BBE0F900FBE0F9008950F920FB6F894DD
:1010B0000F920BB60F920CB60F921F9211242F9223
:1010C0003F924F925F926F927F928F929F92AF92D8
:1010D000BF92CF92DF92EF92FF920F931F932F93C5
:1010E0003F934F935F936F937F938F939F93AF93B0
:1010F000BF93CF93DF93EF93FF93A0912A0CB0910E
:101100002B0C0DB60D920EB60D928091600290914F
:101110006102019790936102809360028091600266
:1011200090916102892B41F480915E0290915F025F
:1011300090936102809360020E942F11882311F026
:101140000E941C12A0912A0CB0912B0CCD91CDBF06
:10115000DD91DEBFFF91EF91DF91CF91BF91AF9114
:101160009F918F917F916F915F914F913F912F91BF
:101170001F910F91FF90EF90DF90CF90BF90AF90B5
:101180009F908F907F906F905F904F903F902F90A7
:101190001F900F900CBE0F900BBE0F900FBE0F90C4
:1011A0000895CF93DF93CDB7DEB72A970FB6F894A3
:1011B000DEBF0FBECDBF80E197E2A0E0B0E0898343
:1011C0009A83AB83BC8389819A81AB81BC8168940B
:1011D00015F8B695A795979587951694D1F78983B5
:1011E0009A83AB83BC8389819A81AB81BC81880F50
:1011F000991FAA1FBB1F880F991FAA1FBB1F880F0B
:10120000991FAA1FBB1F880F991FAA1FBB1F880FFA
:10121000991FAA1FBB1F880F991FAA1FBB1F9C01E4
:10122000AD0180E896E9A8E9B0E0BC01CD010E94DB
:10123000B618DA01C90190935F0280935E02809133
:101240005E0290915F0290936102809360028981B7
:101250009A81AB81BC810197A109B10989839A83E5
:10126000AB83BC8389818D8389819A81AB81BC8169
:10127000892F9A2FAB2FBB2789839A83AB83BC839B
:1012800089818E8389E990E02E81FC01208388E9A1
:1012900090E02D81FC0120838BE08D8381E990E03B
:1012A0002D81FC01208381E790E0FC0180818D830A
:1012B0008D8182608D8381E790E02D81FC01208308
:1012C0002A960FB6F894DEBF0FBECDBFDF91CF9147
:1012D0000895EBDE1895CF93DF9300D01F92CDB722
:1012E000DEB79C838B831A82198209D78091280CE0
:1012F0009091290C892B31F483E692E09093290C8C
:101300008093280C2091260C3091270C8B819C8196
:10131000820F931F833C994038F52091260C309121
:10132000270C8B819C81280F391F8091260C90916E
:10133000270C82179307C0F42091280C3091290CB8
:101340008091260C9091270C820F931F9A8389839A
:101350002091260C3091270C8B819C81820F931F4A
:101360009093270C8093260CD6D689819A810F9072
:101370000F900F900F90DF91CF910895CF93DF934F
:101380001F921F92CDB7DEB79A8389830F900F907B
:10139000DF91CF910895CF93DF9300D01F921F92DA
:1013A000CDB7DEB79C838B836D838B819C819A83C1
:1013B00089830FB6F8940F9289819A81FC0180810C
:1013C000918129813A81F901238D422F50E02981B1
:1013D0003A81F901248D222F30E0429FB001439FD2
:1013E000700D529F700D11249B01280F391F8981A8
:1013F0009A81FC013383228389819A81FC01128EB8
:1014000089819A81FC012081318189819A81FC0145
:101410003583248389819A81FC018081918129818E
:101420003A81F901238D222F30E0A9014150510961
:1014300029813A81F901248D222F30E0429FB001A9
:10144000439F700D529F700D11249B01280F391F6F
:1014500089819A81FC013783268389819A812FEFC4
:10146000FC01258F89819A812FEFFC01268F8D81C8
:10147000882379F489819A81FC018085882389F009
:1014800089819A8108960E941F13813051F4ACDD46
:1014900008C089819A81089648DA89819A814196A3
:1014A00044DA0F900FBE81E00F900F900F900F90D5
:1014B0000F90DF91CF910895CF93DF93CDB7DEB733
:1014C0002B970FB6F894DEBF0FBECDBF89876A8712
:1014D0004B871C821B828A85882319F41A82198201
:1014E00011C08985282F30E08A85882F90E0289FB9
:1014F000A001299F500D389F500D1124CA0101965B
:101500009A83898389819A814F96E5DE9E838D83B4
:101510008D819E81892B59F18D819E8198878F8342
:101520008A85882341F48F8198852F813885FC0135
:10153000318320830AC08D819E819C01215E3F4FB3
:101540008F819885FC01318320838F81988529853F
:10155000FC01238F8F8198852A85FC01248F8F8140
:10156000988561E018DF8F8198859C838B838B81C0
:101570009C812B960FB6F894DEBF0FBECDBFDF91D6
:10158000CF910895CF93DF93CDB7DEB72E970FB6E7
:10159000F894DEBF0FBECDBF998788877B876A87A7
:1015A0005D874C872E871982888599859B838A83DE
:1015B0000FB6F8940F928A819B81FC01228D8A815B
:1015C0009B81FC01838D281718F08E858230F9F4F9
:1015D0002A853B858A819B814E85B901F3D18C8315
:1015E0008A819B81FC018189882349F08A819B81C2
:1015F00041960E941F13813031F4F6DC04C08C81C7
:10160000882309F0F1DC0F900FBE81E057C08C8574
:101610009D85892B21F40F900FBE80E04FC08981FA
:10162000882331F4CE0105960E948C1381E08983D2
:101630000F900FBE64D50FB6F8940F928A819B81EC
:10164000FC01858D8F3F21F48A819B81FC01158EE1
:101650008A819B81FC01868D8F3F21F48A819B8149
:10166000FC01168E0F900FBE9E01245F3F4FCE01EE
:101670000596B9010E94A8138823C9F48A819B8129
:101680002ED3882379F02C853D858A819B8108960D
:10169000B90160D78A819B81A4D23DD5882369F4A2
:1016A000A3DC0BC08A819B819CD235D581CF8A81F6
:1016B0009B8197D230D580E001C07ACF2E960FB6AD
:1016C000F894DEBF0FBECDBFDF91CF910895CF93C9
:1016D000DF93CDB7DEB72B970FB6F894DEBF0FBE02
:1016E000CDBF9E838D8378876F835A8749872B87E9
:1016F0008D819E819B838A831C828A819B81FC01D0
:10170000228D8A819B81FC01838D281718F08B859F
:10171000823081F52F8138858A819B814B85B90183
:1017200051D18A819B81FC01868D8F3FB1F48A81E2
:101730009B81FC0181898823D1F08A819B8141961C
:101740007ED78823A1F089859A85892B81F08985A8
:101750009A8521E0FC0120830AC08A819B81FC01DB
:10176000868D8F5F282F8A819B81FC01268F81E0E7
:10177000898301C0198289812B960FB6F894DEBF48
:101780000FBECDBFDF91CF910895CF93DF93CDB73B
:10179000DEB72F970FB6F894DEBF0FBECDBF9A8786
:1017A00089877C876B875E874D872F87198289851C
:1017B0009A859B838A830FB6F8940F928A819B81C6
:1017C000FC01828D882309F440C08A819B81FC0141
:1017D000868197819D838C832B853C858A819B8123
:1017E000B901AFD18F858823C1F48A819B81FC0127
:1017F000828D2FEF280F8A819B81FC01228F8A81A5
:101800009B81FC0180858823E1F08A819B81089679
:1018100016D78130B1F4E8DB14C08A819B812C811A
:101820003D81FC01378326838A819B81FC0181896C
:10183000882339F08A819B81419601D7882309F05A
:10184000D3DB0F900FBE81E055C08D859E85892B1F
:1018500021F40F900FBE80E04DC08981882329F4C8
:10186000CE01069659D781E089830F900FBE47D4E9
:101870000FB6F8940F928A819B81FC01858D8F3F72
:1018800021F48A819B81FC01158E8A819B81FC0158
:10189000868D8F3F21F48A819B81FC01168E0F90EB
:1018A0000FBE9E01235F3F4FCE010696B90150D770
:1018B0008823C9F48A819B81F5D1882379F02D850D
:1018C0003E858A819B814196B90144D68A819B815C
:1018D00088D121D4882369F487DB0BC08A819B815E
:1018E00080D119D468CF8A819B817BD114D480E0C8
:1018F00001C061CF2F960FB6F894DEBF0FBECDBFEB
:10190000DF91CF910895CF93DF93CDB7DEB72A97BC
:101910000FB6F894DEBF0FBECDBF9E838D83788750
:101920006F835A8749878D819E819B838A831C821E
:101930008A819B81FC01828D8823C9F12F813885A2
:101940008A819B81B901FDD08A819B81FC01828DB6
:101950002FEF280F8A819B81FC01228F8A819B8136
:10196000FC01858D8F3FB1F48A819B81FC018085CC
:101970008823D1F08A819B81089661D68823A1F0C3
:1019800089859A85892B81F089859A8521E0FC01DA
:1019900020830AC08A819B81FC01858D8F5F282F5F
:1019A0008A819B81FC01258F81E0898301C0198296
:1019B00089812A960FB6F894DEBF0FBECDBFDF91A6
:1019C000CF910895CF93DF9300D000D0CDB7DEB78D
:1019D0009B838A837D836C834E8319828A819B815A
:1019E000FC01848D882309F498C08E818823D9F561
:1019F0008A819B81FC01848D482F50E08A819B81E4
:101A0000FC01848195812C813D81B9010E94E018FF
:101A10008A819B81FC01248135818A819B81FC0123
:101A2000848D882F90E0280F391F8A819B81FC01CB
:101A3000358324838A819B81FC01248135818A81BD
:101A40009B81FC01828193812817390708F465C0C6
:101A50008A819B81FC01208131818A819B81FC01EB
:101A6000358324835AC08A819B81FC01848D482F51
:101A700050E08A819B81FC01868197812C813D8188
:101A8000B9010E94E0188A819B81FC01268137817F
:101A90008A819B81FC01848D882F90E091958195AE
:101AA0009109280F391F8A819B81FC013783268386
:101AB0008A819B81FC01268137818A819B81FC017F
:101AC0008081918128173907A8F48A819B81FC01C4
:101AD000228133818A819B81FC01848D882F90E053
:101AE000919581959109280F391F8A819B81FC016D
:101AF000378326838E81823081F48A819B81FC0129
:101B0000828D882351F08A819B81FC01828D2FEF89
:101B1000280F8A819B81FC01228F8A819B81FC0195
:101B2000828D21E0280F8A819B81FC01228F89818F
:101B300026960FB6F894DEBF0FBECDBFDF91CF91D2
:101B40000895CF93DF9300D01F92CDB7DEB79A836D
:101B500089837C836B8389819A81FC01848D8823AE
:101B6000C9F189819A81FC012681378189819A8115
:101B7000FC01848D882F90E0280F391F89819A817C
:101B8000FC013783268389819A81FC012681378174
:101B900089819A81FC01828193812817390750F04D
:101BA00089819A81FC012081318189819A81FC019E
:101BB0003783268389819A81FC01848D482F50E0E8
:101BC00089819A81FC01268137818B819C81B901B1
:101BD0000E94E0180F900F900F900F90DF91CF911F
:101BE0000895CF93DF931F921F92CDB7DEB79A83EC
:101BF00089830FB6F8940F9219C089819A81FC01EC
:101C00008189882341F089819A81419618D588235A
:101C100019F00ED601C010C089819A81FC01868D11
:101C20008150282F89819A81FC01268F89819A8190
:101C3000FC01868D18160CF389819A812FEFFC0127
:101C4000268F0F900FBE0FB6F8940F9219C089819E
:101C50009A81FC018085882391F089819A81089678
:101C6000EED4882309F0E4D589819A81FC01858D21
:101C70008150282F89819A81FC01258F01C006C0DF
:101C800089819A81FC01858D18160CF389819A81CE
:101C90002FEFFC01258F0F900FBE0F900F90DF915B
:101CA000CF910895CF93DF9300D0CDB7DEB79B835C
:101CB0008A830FB6F8940F928A819B81FC01828DF2
:101CC000882319F481E0898301C019820F900FBE27
:101CD00089810F900F900F90DF91CF910895CF934E
:101CE000DF9300D0CDB7DEB79B838A830FB6F8941D
:101CF0000F928A819B81FC01228D8A819B81FC014C
:101D0000838D281719F481E0898301C019820F900F
:101D10000FBE89810F900F900F90DF91CF910895A2
:101D2000CF93DF9300D000D0CDB7DEB79C838B83F9
:101D30007E836D838B819C819A8389830FB6F8940F
:101D40000F9289819A81FC01858D8F3F21F48981D1
:101D50009A81FC01158E89819A81FC01868D8F3FC5
:101D600021F489819A81FC01168E0F900FBE898122
:101D70009A81FC01828D882339F489819A81419668
:101D80002D813E81B90128D489819A812ADF269646
:101D90000FB6F894DEBF0FBECDBFDF91CF9108958F
:101DA000AF92BF92CF92DF92EF92FF920F931F9369
:101DB000CF93DF93CDB7DEB764970FB6F894DEBF4D
:101DC0000FBECDBF9F838E83798768875B874A87E5
:101DD0003D872C870E87F88AEF86DA8AC98ABC8A03
:101DE000AB8A29893A898A859B85B90177D69B83F5
:101DF0008A838A819B81892B09F48FC08A819B8188
:101E0000FC012789308D8A859B850197820F931F5E
:101E10009D838C834A855B852B893C896885798580
:101E20008A819B818A014E850DD54C855D852E81E9
:101E30003F818C819D81B9010E94F8059C018A81B6
:101E40009B81FC01318320838F859889892B39F010
:101E50008F8598892A813B81FC01318320830FB6CD
:101E6000F8940F928091820C8F5F8093820C809106
:101E70002A0C90912B0C892B61F48A819B81909381
:101E80002B0C80932A0C8091820C8130A9F45ED5B2
:101E900013C08091860C882379F480912A0C90914C
:101EA0002B0CFC0196898E85891730F08A819B81E5
:101EB00090932B0C80932A0C80918A0C8F5F8093D7
:101EC0008A0C8A819B81FC0196898091850C8917F7
:101ED00030F48A819B81FC0186898093850C8A81FC
:101EE0009B81AC014E5F5F4F8A819B81FC0186899B
:101EF000282F30E0C901880F991F880F991F880F7C
:101F0000991F820F931F845D934FBA010E94DD04D5
:101F100081E089830F900FBE02C08FEF8983898192
:101F2000813071F48091860C882351F080912A0CC5
:101F300090912B0CFC0196898E85981708F454D843
:101F4000898164960FB6F894DEBF0FBECDBFDF91D6
:101F5000CF911F910F91FF90EF90DF90CF90BF90A6
:101F6000AF900895CF93DF9300D01F921F92CDB70B
:101F7000DEB79D838C8319828C819D81892BB9F07A
:101F8000BED02091830C3091840C8C819D81820F76
:101F9000931F9B838A8380912A0C90912B0C02962D
:101FA0000E94A1058A819B814ED5B5D08983898104
:101FB000882309F419D80F900F900F900F900F906D
:101FC000DF91CF910895CF93DF9300D01F92CDB7CB
:101FD000DEB79C838B830FB6F8940F928B819C8124
:101FE000892B29F480912A0C90912B0C02C08B81B3
:101FF0009C819A83898389819A8102960E94A10596
:1020000089819A81FC0184899589892B29F08981AC
:102010009A810C960E94A10589819A810296BC0141
:1020200089E79CE00E94DD040F900FBE80912A0C8E
:1020300090912B0C29813A8128173907A1F48091BE
:10204000860C882319F00E94F40717C09091790C30
:102050008091820C981729F410922B0C10922A0C64
:102060000CC0EAD10AC08091860C882331F00FB6EB
:10207000F8940F928ED50F900FBE0F900F900F9087
:102080000F90DF91CF910895AF92BF92CF92DF92E0
:10209000EF92FF920F93CF93DF931F92CDB7DEB7EE
:1020A000A12CB12CC12CD12CE12CF12C00E020E092
:1020B00030E049EB50E06AE072E08CE790E070DEDF
:1020C00089838981813019F40E94B10089838981D3
:1020D000813051F4F89481E08093860C1092840C46
:1020E0001092830C0E94BC070F90DF91CF910F914B
:1020F000FF90EF90DF90CF90BF90AF900895CF9377
:10210000DF93CDB7DEB780918B0C8F5F80938B0C04
:10211000DF91CF910895CF93DF9300D0CDB7DEB795
:1021200019820FB6F8940F9280918B0C8150809396
:102130008B0C80918B0C882309F070C08091820CED
:10214000882309F46BC049C080916B0C90916C0C92
:10215000FC01868197819B838A838A819B810C966F
:102160000E94A1058A819B8102960E94A1058A8115
:102170009B81FC0196898091850C891730F48A81B6
:102180009B81FC0186898093850C8A819B81AC01AF
:102190004E5F5F4F8A819B81FC018689282F30E04A
:1021A000C901880F991F880F991F880F991F820FE7
:1021B000931F845D934FBA010E94DD048A819B8145
:1021C000FC01268980912A0C90912B0CFC018689B8
:1021D000281718F081E08093880C8091660C882382
:1021E00009F0B2CF8091870C882381F00BC037D0E3
:1021F000882319F081E08093880C8091870C8150AE
:102200008093870C8091870C882389F78091880CB4
:10221000813021F481E089830E94F4070F900FBE82
:1022200089810F900F900F90DF91CF910895CF93F8
:10223000DF931F921F92CDB7DEB70FB6F8940F92BF
:102240008091830C9091840C9A8389830F900FBEA8
:1022500089819A810F900F90DF91CF910895CF934C
:10226000DF93CDB7DEB729970FB6F894DEBF0FBE68
:10227000CDBF198280918B0C882309F0C8C0809152
:10228000830C9091840C01969093840C8093830C22
:102290008091830C9091840C9B838A838A819B819B
:1022A000892BD1F48091620C9091630C9D838C8377
:1022B0008091640C9091650C9093630C8093620CF8
:1022C0008C819D819093650C8093640C8091890C26
:1022D0008F5F8093890C5DD4809100029091010200
:1022E0002A813B812817390708F477C08091620C56
:1022F0009091630CFC018081882339F48FEF9FEF6C
:10230000909301028093000268C08091620C9091CA
:10231000630CFC0185819681FC01868197819F83F6
:102320008E838E819F81FC0182819381998788872A
:102330002A813B81888599852817390738F4888553
:102340009985909301028093000247C08E819F81FE
:1023500002960E94A1058E819F81FC018489958946
:10236000892B29F08E819F810C960E94A1058E8178
:102370009F81FC0196898091850C891730F48E81AC
:102380009F81FC0186898093850C8E819F81AC01A1
:102390004E5F5F4F8E819F81FC018689282F30E040
:1023A000C901880F991F880F991F880F991F820FE5
:1023B000931F845D934FBA010E94DD048E819F813B
:1023C000FC01268980912A0C90912B0CFC018689B6
:1023D000281710F081E0898389CF80912A0C909191
:1023E0002B0CFC018689282F30E0C901880F991F2A
:1023F000880F991F880F991F820F931F845D934F39
:10240000FC018081823040F081E0898305C08091A9
:10241000870C8F5F8093870C8091880C882311F044
:1024200081E08983898129960FB6F894DEBF0FBEBB
:10243000CDBFDF91CF910895CF93DF931F921F926D
:10244000CDB7DEB780918B0C882321F081E080939B
:10245000880C7BC01092880C80912A0C90912B0CD8
:10246000FC012081318180912A0C90912B0CFC0180
:102470008789908D8217930768F080912A0C90913C
:102480002B0C9C01275E3F4F80912A0C90912B0CC6
:10249000B901B0D505C08091850C81508093850C21
:1024A0008091850C282F30E0C901880F991F880F73
:1024B000991F880F991F820F931F845D934FFC0112
:1024C0008081882341F38091850C282F30E0C90159
:1024D000880F991F880F991F880F991F820F931FCC
:1024E000845D934F9A83898389819A81FC018181DC
:1024F0009281FC012281338189819A81FC0132839E
:10250000218389819A81FC012181328189819A818B
:1025100003962817390769F489819A81FC01818122
:102520009281FC012281338189819A81FC0132836D
:10253000218389819A81FC0181819281FC018681BC
:10254000978190932B0C80932A0C0F900F90DF9122
:10255000CF910895CF93DF9300D000D0CDB7DEB7F1
:102560009C838B837E836D8380912A0C90912B0CAE
:102570009C01245F3F4F8B819C81B9010E942A05F9
:1025800080912A0C90912B0C02960E94A1058D81BE
:102590009E81019659F480912A0C90912B0C029601
:1025A000BC0189E79CE00E94DD040DC02091830CF2
:1025B0003091840C8D819E81820F931F9A83898331
:1025C00089819A8140D226960FB6F894DEBF0FBE5D
:1025D000CDBFDF91CF910895CF93DF9300D000D08E
:1025E000CDB7DEB79C838B837E836D8380912A0C6D
:1025F00090912B0C9C01245F3F4F8B819C81B901F2
:102600000E94DD0480912A0C90912B0C02960E946E
:10261000A1052091830C3091840C8D819E81820FC5
:10262000931F9A83898389819A810DD226960FB64A
:10263000F894DEBF0FBECDBFDF91CF910895CF9349
:10264000DF9300D01F921F92CDB7DEB79D838C839E
:102650008C819D81FC0185819681FC018681978119
:102660009B838A838A819B810C960E94A10580911D
:102670008B0C882369F58A819B8102960E94A105B3
:102680008A819B81FC0196898091850C891730F4A1
:102690008A819B81FC0186898093850C8A819B813C
:1026A000AC014E5F5F4F8A819B81FC018689282F98
:1026B00030E0C901880F991F880F991F880F991F53
:1026C000820F931F845D934FBA010E94DD0408C0FE
:1026D0008A819B810C96BC0186E69CE00E94DD0409
:1026E0008A819B81FC01268980912A0C90912B0C78
:1026F000FC018689821730F481E0898381E0809330
:10270000880C01C0198289810F900F900F900F9053
:102710000F90DF91CF910895CF93DF931F921F9277
:10272000CDB7DEB79A8389832091890C89819A81FC
:10273000FC0120832091830C3091840C89819A8143
:10274000FC01328321830F900F90DF91CF91089588
:10275000CF93DF93CDB7DEB727970FB6F894DEBFE0
:102760000FBECDBF9D838C837F836E830FB6F8949D
:102770000F928091830C9091840C9B838A838E812D
:102780009F81FC0180819181019611F4198244C0DE
:102790008C819D81FC0190818091890C981769F052
:1027A0008C819D81FC01218132818A819B818217EC
:1027B000930718F081E089832FC08C819D81FC01F3
:1027C000818192812A813B81281B390B8E819F81D7
:1027D000FC018081918128173907E0F48E819F8167
:1027E000FC01208131818C819D81FC0141815281DC
:1027F0008A819B81BA01681B790BCB01280F391F95
:102800008E819F81FC01318320838C819D8184DFB7
:10281000198202C081E089830F900FBE89812796BB
:102820000FB6F894DEBF0FBECDBFDF91CF910895F4
:10283000CF93DF93CDB7DEB781E08093880CDF9133
:10284000CF9108950F931F93CF93DF93CDB7DEB74A
:102850002A970FB6F894DEBF0FBECDBF9B838A8345
:102860007D836C834E8338872F831A87098719826B
:1028700022C08981882F90E02981222F30E04C816D
:102880005D81240F351FF90140812A813B81820F30
:10289000931F4996FC0140838981882F90E02C8109
:1028A0003D81820F931FFC018081882309F406C0BB
:1028B00089818F5F898389818830D8F28A819B8161
:1028C000FC0110A28E81843010F083E08E838A8117
:1028D0009B812E81FC01268B8A819B8102960E941E
:1028E000CB048A819B810C960E94CB048A819B81B8
:1028F0002A813B81FC01318720878E81882F90E0DF
:1029000024E030E0281B390B8A819B81FC0135874C
:1029100024878A819B812A813B81FC01338B228B16
:102920008A819B81FC0111A212A213A214A28A81A6
:102930009B81FC0115A22A960FB6F894DEBF0FBE4C
:10294000CDBFDF91CF911F910F910895CF93DF936A
:102950001F92CDB7DEB7198213C08981282F30E0CE
:10296000C901880F991F880F991F880F991F820F1F
:10297000931F845D934F0E94950489818F5F8983A3
:102980008981843050F380E59CE00E94950489E5BC
:102990009CE00E94950486E69CE00E9495048FE6E8
:1029A0009CE00E94950489E79CE00E94950480E5E4
:1029B0009CE09093630C8093620C89E59CE090937B
:1029C000650C8093640C0F90DF91CF910895CF93A5
:1029D000DF9300D0CDB7DEB72CC091DB90916F0CA8
:1029E00081E0992309F080E0898395DB8981882340
:1029F00001F50FB6F8940F928091740C9091750CBC
:102A0000FC01868197819B838A838A819B810296C0
:102A10000E94A1058091820C81508093820C80914C
:102A2000780C81508093780C0F900FBE8A819B8127
:102A300098D08091780C882381F60F900F900F909A
:102A4000DF91CF910895CF93DF931F921F92CDB75F
:102A5000DEB79A83898380912A0C90912B0C29816F
:102A60003A81FC01338322838091830C9091840C02
:102A700029813A812817390778F480912A0C90919E
:102A80002B0C9C012E5F3F4F8091640C9091650C44
:102A9000B9010E942A051DC080912A0C90912B0C2F
:102AA0009C012E5F3F4F8091620C9091630CB901A5
:102AB0000E942A05809100029091010229813A81A9
:102AC0002817390730F489819A8190930102809305
:102AD00000020F900F90DF91CF910895CF93DF9375
:102AE000CDB7DEB728970FB6F894DEBF0FBECDBFC7
:102AF0009E838D8378876F838F819885892B29F4B6
:102B00008D819E810E946B0902C08F8198859C8374
:102B10008B838B819C81892BB9F086E290E00E94A7
:102B20006B099A83898389819A81892B41F08981F4
:102B30009A812B813C81FC01308F278B07C08B81D0
:102B40009C810E94BE0902C01A82198289819A81E1
:102B500028960FB6F894DEBF0FBECDBFDF91CF91A0
:102B60000895CF93DF931F921F92CDB7DEB79A835C
:102B7000898389819A81FC018789908D0E94BE0991
:102B800089819A810E94BE090F900F90DF91CF91A9
:102B90000895CF93DF931F921F92CDB7DEB7809138
:102BA000620C9091630CFC018081882339F48FEFD3
:102BB0009FEF909301028093000215C08091620CF8
:102BC0009091630CFC0185819681FC01868197813F
:102BD0009A83898389819A81FC0182819381909370
:102BE0000102809300020F900F90DF91CF91089522
:102BF000CF93DF931F92CDB7DEB78091860C8823E9
:102C000019F481E0898308C080918B0C882319F422
:102C100082E0898301C0198289810F90DF91CF9171
:102C20000895CF93DF931F921F92CDB7DEB79A839B
:102C300089838091960C9091970C20E040E050E0C1
:102C400060E070E00E94C20A0F900F90DF91CF9178
:102C50000895CF93DF931F921F92CDB7DEB79A836B
:102C6000898380919A0C90919B0C20E040E050E089
:102C700060E070E00E94C20A0F900F90DF91CF9148
:102C80000895CF93DF931F921F92CDB7DEB79A833B
:102C900089838091900C9091910C20E040E050E06D
:102CA00060E070E00E94C20A0F900F90DF91CF9118
:102CB00008950F931F93CF93DF931F921F92CDB769
:102CC000DEB79A83898301E116E12AE230E041E030
:102CD00060EA7FE08FE092E00E94E30090939D0C19
:102CE00080939C0CA4DAAC0180919C0C90919D0C7B
:102CF00000E010E020E030E061E00E943C0180ED67
:102D000097E030D909E216E12AE230E041E060EADA
:102D10007FE087E192E00E94E3009093990C80931A
:102D2000980C85DAAC018091980C9091990C00E098
:102D300010E020E030E061E00E943C0188EE93E08A
:102D400011D901E416E12AE230E041E060ED77E0DC
:102D50008FE192E00E94E3009093A10C8093A00C7D
:102D600066DAAC018091A00C9091A10C00E010E01B
:102D700020E030E061E00E943C0180E090E023D957
:102D8000FCCFCF93DF931F921F92CDB7DEB79A830C
:102D900089838091960C9091970C20E04FEF5FEF24
:102DA00060E070E00E94C50B61E08AE0ABD0F1CF3B
:102DB000CF93DF931F921F92CDB7DEB79A8389839B
:102DC00080919A0C90919B0C20E04FEF5FEF60E0B8
:102DD00070E00E94C50B62E08AE094D0F1CFCF93FF
:102DE000DF931F921F92CDB7DEB79A8389838091BC
:102DF000900C9091910C20E04FEF5FEF60E070E05D
:102E00000E94C50B64E084E07DD0F1CFAF92BF9209
:102E1000CF92DF92EF92FF920F93CF93DF93CDB7D4
:102E2000DEB784E290E02FEFFC012083A12CB12CCF
:102E3000C12CD12CE12CF12C01E020E030E049EB59
:102E400050E067E272E081EC96E10E94D00EA12C86
:102E5000B12CC12CD12CE12CF12C02E020E030E08F
:102E600049EB50E06EE272E088ED96E10E94D00EF0
:102E7000A12CB12CC12CD12CE12CF12C03E020E0B1
:102E800030E049EB50E065E372E08FEE96E10E949E
:102E9000D00EA12CB12CC12CD12CE12CF12C04E0B2
:102EA00020E030E049EB50E06CE372E089E596E128
:102EB0000E94D00E43E060E081E00E945C0A9093A3
:102EC000970C8093960C43E060E081E00E945C0ADE
:102ED00090939B0C80939A0C43E060E081E00E9409
:102EE0005C0A9093910C8093900CCED880E090E097
:102EF000DF91CF910F91FF90EF90DF90CF90BF9037
:102F0000AF900895CF93DF9300D01F921F92CDB75B
:102F1000DEB78C836D8319822DC0898181708823EF
:102F2000A1F41B821A820BC085E290E02D812095CE
:102F3000FC0120838A819B8101969B838A838A81FD
:102F40009B818031974280F312C01B821A820AC093
:102F500085E290E02FEFFC0120838A819B8101961E
:102F60009B838A838A819B818031974288F3898100
:102F70008F5F898399818C81981778F20F900F90D9
:102F80000F900F900F90DF91CF910895CF93DF9323
:102F9000CDB7DEB7DF91CF9108951F920F920090C9
:102FA0005F000F92112400905B000F922F933F93CC
:102FB0008F939F93EF93FF93CF93DF93CDB7DEB7BC
:102FC00082E290E022E230E0F90120812D7FFC01D5
:102FD0002083DF91CF91FF91EF919F918F913F914E
:102FE0002F910F9000925B000F9000925F000F9066
:102FF0001F901895CF93DF9300D01F92CDB7DEB707
:103000009A8389837C836B8382E290E022E230E0C2
:10301000F90120812068FC0120830F900F900F9010
:103020000F90DF91CF9108951F920F9200905F0053
:103030000F92112400905B000F922F933F934F93B8
:103040005F936F937F938F939F93AF93BF93EF9310
:10305000FF93CF93DF931F921F92CDB7DEB71A82F3
:1030600086EC90E0FC018081898380918C0C9091AA
:103070008D0CAE014E5F5F4F20E0BE016F5F7F4F52
:103080000E94670B8A81882311F00E94F4070F9039
:103090000F90DF91CF91FF91EF91BF91AF919F91F1
:1030A0008F917F916F915F914F913F912F910F90F1
:1030B00000925B000F9000925F000F901F90189598
:1030C0001F920F9200905F000F92112400905B00FE
:1030D0000F922F933F934F935F936F937F938F93B1
:1030E0009F93AF93BF93EF93FF93CF93DF9300D062
:1030F000CDB7DEB780918E0C90918F0CAE014D5FF5
:103100005F4F9E012E5F3F4FB9010E94830C8130BB
:1031100031F486EC90E02A81FC0120830DC081EC23
:1031200090E0FC018081898389818F7D898381EC96
:1031300090E02981FC0120830F900F900F90DF9188
:10314000CF91FF91EF91BF91AF919F918F917F911F
:103150006F915F914F913F912F910F9000925B0083
:103160000F9000925F000F901F901895A1E21A2E09
:10317000AA1BBB1BFD010DC0AA1FBB1FEE1FFF1F1B
:10318000A217B307E407F50720F0A21BB30BE40B6B
:10319000F50B661F771F881F991F1A9469F76095B2
:1031A0007095809590959B01AC01BD01CF0108956C
:1031B000EE0FFF1F881F8BBF0790F691E02D19942B
:1031C000FB01DC0102C001900D9241505040D8F744
:0631D0000895F894FFCF02
:1031D600FFFF546D72205376630049444C450054FA
:1031E600696D657220310054696D65722032005434
:1031F600696D65722033005461736B203100546130
:10320600736B2032005461736B2033005461736B0F
:043216002034000060
:00000001FF
